{
  "_format": "hh-sol-artifact-1",
  "contractName": "NFTMarketplace",
  "sourceName": "contracts/NFTMarketplace.sol",
  "abi": [
    {
      "inputs": [],
      "stateMutability": "nonpayable",
      "type": "constructor"
    },
    {
      "anonymous": false,
      "inputs": [
        {
          "indexed": true,
          "internalType": "address",
          "name": "owner",
          "type": "address"
        },
        {
          "indexed": true,
          "internalType": "address",
          "name": "approved",
          "type": "address"
        },
        {
          "indexed": true,
          "internalType": "uint256",
          "name": "tokenId",
          "type": "uint256"
        }
      ],
      "name": "Approval",
      "type": "event"
    },
    {
      "anonymous": false,
      "inputs": [
        {
          "indexed": true,
          "internalType": "address",
          "name": "owner",
          "type": "address"
        },
        {
          "indexed": true,
          "internalType": "address",
          "name": "operator",
          "type": "address"
        },
        {
          "indexed": false,
          "internalType": "bool",
          "name": "approved",
          "type": "bool"
        }
      ],
      "name": "ApprovalForAll",
      "type": "event"
    },
    {
      "anonymous": false,
      "inputs": [
        {
          "indexed": false,
          "internalType": "uint256",
          "name": "_fromTokenId",
          "type": "uint256"
        },
        {
          "indexed": false,
          "internalType": "uint256",
          "name": "_toTokenId",
          "type": "uint256"
        }
      ],
      "name": "BatchMetadataUpdate",
      "type": "event"
    },
    {
      "anonymous": false,
      "inputs": [
        {
          "indexed": true,
          "internalType": "uint256",
          "name": "tokenId",
          "type": "uint256"
        },
        {
          "indexed": false,
          "internalType": "address",
          "name": "seller",
          "type": "address"
        },
        {
          "indexed": false,
          "internalType": "address",
          "name": "owner",
          "type": "address"
        },
        {
          "indexed": false,
          "internalType": "uint256",
          "name": "price",
          "type": "uint256"
        },
        {
          "indexed": false,
          "internalType": "bool",
          "name": "sold",
          "type": "bool"
        }
      ],
      "name": "MarketItemCreated",
      "type": "event"
    },
    {
      "anonymous": false,
      "inputs": [
        {
          "indexed": false,
          "internalType": "uint256",
          "name": "_tokenId",
          "type": "uint256"
        }
      ],
      "name": "MetadataUpdate",
      "type": "event"
    },
    {
      "anonymous": false,
      "inputs": [
        {
          "indexed": true,
          "internalType": "address",
          "name": "from",
          "type": "address"
        },
        {
          "indexed": true,
          "internalType": "address",
          "name": "to",
          "type": "address"
        },
        {
          "indexed": true,
          "internalType": "uint256",
          "name": "tokenId",
          "type": "uint256"
        }
      ],
      "name": "Transfer",
      "type": "event"
    },
    {
      "inputs": [
        {
          "internalType": "address",
          "name": "to",
          "type": "address"
        },
        {
          "internalType": "uint256",
          "name": "tokenId",
          "type": "uint256"
        }
      ],
      "name": "approve",
      "outputs": [],
      "stateMutability": "nonpayable",
      "type": "function"
    },
    {
      "inputs": [
        {
          "internalType": "address",
          "name": "owner",
          "type": "address"
        }
      ],
      "name": "balanceOf",
      "outputs": [
        {
          "internalType": "uint256",
          "name": "",
          "type": "uint256"
        }
      ],
      "stateMutability": "view",
      "type": "function"
    },
    {
      "inputs": [
        {
          "internalType": "uint256",
          "name": "tokenId",
          "type": "uint256"
        }
      ],
      "name": "createMarketSale",
      "outputs": [],
      "stateMutability": "payable",
      "type": "function"
    },
    {
      "inputs": [
        {
          "internalType": "string",
          "name": "tokenURI",
          "type": "string"
        },
        {
          "internalType": "uint256",
          "name": "price",
          "type": "uint256"
        }
      ],
      "name": "createToken",
      "outputs": [
        {
          "internalType": "uint256",
          "name": "",
          "type": "uint256"
        }
      ],
      "stateMutability": "payable",
      "type": "function"
    },
    {
      "inputs": [],
      "name": "fetchItemsListed",
      "outputs": [
        {
          "components": [
            {
              "internalType": "uint256",
              "name": "tokenId",
              "type": "uint256"
            },
            {
              "internalType": "address payable",
              "name": "seller",
              "type": "address"
            },
            {
              "internalType": "address payable",
              "name": "owner",
              "type": "address"
            },
            {
              "internalType": "uint256",
              "name": "price",
              "type": "uint256"
            },
            {
              "internalType": "bool",
              "name": "sold",
              "type": "bool"
            }
          ],
          "internalType": "struct NFTMarketplace.MarketItem[]",
          "name": "",
          "type": "tuple[]"
        }
      ],
      "stateMutability": "view",
      "type": "function"
    },
    {
      "inputs": [],
      "name": "fetchMarketItems",
      "outputs": [
        {
          "components": [
            {
              "internalType": "uint256",
              "name": "tokenId",
              "type": "uint256"
            },
            {
              "internalType": "address payable",
              "name": "seller",
              "type": "address"
            },
            {
              "internalType": "address payable",
              "name": "owner",
              "type": "address"
            },
            {
              "internalType": "uint256",
              "name": "price",
              "type": "uint256"
            },
            {
              "internalType": "bool",
              "name": "sold",
              "type": "bool"
            }
          ],
          "internalType": "struct NFTMarketplace.MarketItem[]",
          "name": "",
          "type": "tuple[]"
        }
      ],
      "stateMutability": "view",
      "type": "function"
    },
    {
      "inputs": [],
      "name": "fetchMyNFTs",
      "outputs": [
        {
          "components": [
            {
              "internalType": "uint256",
              "name": "tokenId",
              "type": "uint256"
            },
            {
              "internalType": "address payable",
              "name": "seller",
              "type": "address"
            },
            {
              "internalType": "address payable",
              "name": "owner",
              "type": "address"
            },
            {
              "internalType": "uint256",
              "name": "price",
              "type": "uint256"
            },
            {
              "internalType": "bool",
              "name": "sold",
              "type": "bool"
            }
          ],
          "internalType": "struct NFTMarketplace.MarketItem[]",
          "name": "",
          "type": "tuple[]"
        }
      ],
      "stateMutability": "view",
      "type": "function"
    },
    {
      "inputs": [],
      "name": "fetchTransactionBySeller",
      "outputs": [
        {
          "components": [
            {
              "internalType": "uint256",
              "name": "transactionId",
              "type": "uint256"
            },
            {
              "internalType": "uint256",
              "name": "tokenId",
              "type": "uint256"
            },
            {
              "internalType": "address",
              "name": "seller",
              "type": "address"
            },
            {
              "internalType": "address",
              "name": "buyer",
              "type": "address"
            },
            {
              "internalType": "uint256",
              "name": "price",
              "type": "uint256"
            },
            {
              "internalType": "string",
              "name": "status",
              "type": "string"
            },
            {
              "internalType": "uint256",
              "name": "listedDate",
              "type": "uint256"
            },
            {
              "internalType": "uint256",
              "name": "soldDate",
              "type": "uint256"
            }
          ],
          "internalType": "struct NFTMarketplace.Transaction[]",
          "name": "",
          "type": "tuple[]"
        }
      ],
      "stateMutability": "view",
      "type": "function"
    },
    {
      "inputs": [
        {
          "internalType": "uint256",
          "name": "tokenId",
          "type": "uint256"
        }
      ],
      "name": "getApproved",
      "outputs": [
        {
          "internalType": "address",
          "name": "",
          "type": "address"
        }
      ],
      "stateMutability": "view",
      "type": "function"
    },
    {
      "inputs": [],
      "name": "getListingPrice",
      "outputs": [
        {
          "internalType": "uint256",
          "name": "",
          "type": "uint256"
        }
      ],
      "stateMutability": "view",
      "type": "function"
    },
    {
      "inputs": [
        {
          "internalType": "address",
          "name": "owner",
          "type": "address"
        },
        {
          "internalType": "address",
          "name": "operator",
          "type": "address"
        }
      ],
      "name": "isApprovedForAll",
      "outputs": [
        {
          "internalType": "bool",
          "name": "",
          "type": "bool"
        }
      ],
      "stateMutability": "view",
      "type": "function"
    },
    {
      "inputs": [],
      "name": "name",
      "outputs": [
        {
          "internalType": "string",
          "name": "",
          "type": "string"
        }
      ],
      "stateMutability": "view",
      "type": "function"
    },
    {
      "inputs": [
        {
          "internalType": "uint256",
          "name": "tokenId",
          "type": "uint256"
        }
      ],
      "name": "ownerOf",
      "outputs": [
        {
          "internalType": "address",
          "name": "",
          "type": "address"
        }
      ],
      "stateMutability": "view",
      "type": "function"
    },
    {
      "inputs": [
        {
          "internalType": "uint256",
          "name": "tokenId",
          "type": "uint256"
        },
        {
          "internalType": "uint256",
          "name": "price",
          "type": "uint256"
        }
      ],
      "name": "resellToken",
      "outputs": [],
      "stateMutability": "payable",
      "type": "function"
    },
    {
      "inputs": [
        {
          "internalType": "address",
          "name": "from",
          "type": "address"
        },
        {
          "internalType": "address",
          "name": "to",
          "type": "address"
        },
        {
          "internalType": "uint256",
          "name": "tokenId",
          "type": "uint256"
        }
      ],
      "name": "safeTransferFrom",
      "outputs": [],
      "stateMutability": "nonpayable",
      "type": "function"
    },
    {
      "inputs": [
        {
          "internalType": "address",
          "name": "from",
          "type": "address"
        },
        {
          "internalType": "address",
          "name": "to",
          "type": "address"
        },
        {
          "internalType": "uint256",
          "name": "tokenId",
          "type": "uint256"
        },
        {
          "internalType": "bytes",
          "name": "data",
          "type": "bytes"
        }
      ],
      "name": "safeTransferFrom",
      "outputs": [],
      "stateMutability": "nonpayable",
      "type": "function"
    },
    {
      "inputs": [
        {
          "internalType": "address",
          "name": "operator",
          "type": "address"
        },
        {
          "internalType": "bool",
          "name": "approved",
          "type": "bool"
        }
      ],
      "name": "setApprovalForAll",
      "outputs": [],
      "stateMutability": "nonpayable",
      "type": "function"
    },
    {
      "inputs": [
        {
          "internalType": "bytes4",
          "name": "interfaceId",
          "type": "bytes4"
        }
      ],
      "name": "supportsInterface",
      "outputs": [
        {
          "internalType": "bool",
          "name": "",
          "type": "bool"
        }
      ],
      "stateMutability": "view",
      "type": "function"
    },
    {
      "inputs": [],
      "name": "symbol",
      "outputs": [
        {
          "internalType": "string",
          "name": "",
          "type": "string"
        }
      ],
      "stateMutability": "view",
      "type": "function"
    },
    {
      "inputs": [
        {
          "internalType": "uint256",
          "name": "tokenId",
          "type": "uint256"
        }
      ],
      "name": "tokenURI",
      "outputs": [
        {
          "internalType": "string",
          "name": "",
          "type": "string"
        }
      ],
      "stateMutability": "view",
      "type": "function"
    },
    {
      "inputs": [
        {
          "internalType": "address",
          "name": "from",
          "type": "address"
        },
        {
          "internalType": "address",
          "name": "to",
          "type": "address"
        },
        {
          "internalType": "uint256",
          "name": "tokenId",
          "type": "uint256"
        }
      ],
      "name": "transferFrom",
      "outputs": [],
      "stateMutability": "nonpayable",
      "type": "function"
    },
    {
      "inputs": [
        {
          "internalType": "uint256",
          "name": "_listingPrice",
          "type": "uint256"
        }
      ],
      "name": "updateListingPrice",
      "outputs": [],
      "stateMutability": "payable",
      "type": "function"
    }
  ],
  "bytecode": "0x60806040526658d15e17628000600a553480156200001c57600080fd5b506040518060400160405280601081526020017f4d657461766572736520546f6b656e73000000000000000000000000000000008152506040518060400160405280600481526020017f4d455454000000000000000000000000000000000000000000000000000000008152508160009080519060200190620000a192919062000104565b508060019080519060200190620000ba92919062000104565b50505033600b60006101000a81548173ffffffffffffffffffffffffffffffffffffffff021916908373ffffffffffffffffffffffffffffffffffffffff16021790555062000219565b8280546200011290620001b4565b90600052602060002090601f01602090048101928262000136576000855562000182565b82601f106200015157805160ff191683800117855562000182565b8280016001018555821562000182579182015b828111156200018157825182559160200191906001019062000164565b5b50905062000191919062000195565b5090565b5b80821115620001b057600081600090555060010162000196565b5090565b60006002820490506001821680620001cd57607f821691505b60208210811415620001e457620001e3620001ea565b5b50919050565b7f4e487b7100000000000000000000000000000000000000000000000000000000600052602260045260246000fd5b614ea980620002296000396000f3fe6080604052600436106101355760003560e01c80636352211e116100ab578063ae677aa31161006f578063ae677aa31461042f578063b88d4fde1461044b578063be9af53614610474578063c87b56dd14610490578063e219fc75146104cd578063e985e9c5146104e957610135565b80636352211e1461033157806370a082311461036e57806372b3b620146103ab57806395d89b41146103db578063a22cb4651461040657610135565b806312e85585116100fd57806312e8558514610233578063202e37401461025e57806323b872dd1461028957806342842e0e146102b257806345f8fa80146102db57806362e9955c1461030657610135565b806301ffc9a71461013a57806306fdde0314610177578063081812fc146101a2578063095ea7b3146101df5780630f08efe014610208575b600080fd5b34801561014657600080fd5b50610161600480360381019061015c9190613a65565b610526565b60405161016e9190614279565b60405180910390f35b34801561018357600080fd5b5061018c610587565b6040516101999190614294565b60405180910390f35b3480156101ae57600080fd5b506101c960048036038101906101c49190613b0b565b610619565b6040516101d69190614189565b60405180910390f35b3480156101eb57600080fd5b5061020660048036038101906102019190613a29565b61065f565b005b34801561021457600080fd5b5061021d610777565b60405161022a9190614235565b60405180910390f35b34801561023f57600080fd5b50610248610a2c565b6040516102559190614516565b60405180910390f35b34801561026a57600080fd5b50610273610a36565b6040516102809190614235565b60405180910390f35b34801561029557600080fd5b506102b060048036038101906102ab9190613923565b610d70565b005b3480156102be57600080fd5b506102d960048036038101906102d49190613923565b610dd0565b005b3480156102e757600080fd5b506102f0610df0565b6040516102fd9190614235565b60405180910390f35b34801561031257600080fd5b5061031b61112a565b6040516103289190614257565b60405180910390f35b34801561033d57600080fd5b5061035860048036038101906103539190613b0b565b6114fa565b6040516103659190614189565b60405180910390f35b34801561037a57600080fd5b50610395600480360381019061039091906138be565b611581565b6040516103a29190614516565b60405180910390f35b6103c560048036038101906103c09190613ab7565b611639565b6040516103d29190614516565b60405180910390f35b3480156103e757600080fd5b506103f061167b565b6040516103fd9190614294565b60405180910390f35b34801561041257600080fd5b5061042d600480360381019061042891906139ed565b61170d565b005b61044960048036038101906104449190613b0b565b611723565b005b34801561045757600080fd5b50610472600480360381019061046d9190613972565b6117bd565b005b61048e60048036038101906104899190613b0b565b61181f565b005b34801561049c57600080fd5b506104b760048036038101906104b29190613b0b565b611b72565b6040516104c49190614294565b60405180910390f35b6104e760048036038101906104e29190613b34565b611c85565b005b3480156104f557600080fd5b50610510600480360381019061050b91906138e7565b612023565b60405161051d9190614279565b60405180910390f35b6000634906490660e01b7bffffffffffffffffffffffffffffffffffffffffffffffffffffffff1916827bffffffffffffffffffffffffffffffffffffffffffffffffffffffff19161480610580575061057f826120b7565b5b9050919050565b606060008054610596906147fa565b80601f01602080910402602001604051908101604052809291908181526020018280546105c2906147fa565b801561060f5780601f106105e45761010080835404028352916020019161060f565b820191906000526020600020905b8154815290600101906020018083116105f257829003601f168201915b5050505050905090565b600061062482612199565b6004600083815260200190815260200160002060009054906101000a900473ffffffffffffffffffffffffffffffffffffffff169050919050565b600061066a826114fa565b90508073ffffffffffffffffffffffffffffffffffffffff168373ffffffffffffffffffffffffffffffffffffffff1614156106db576040517f08c379a00000000000000000000000000000000000000000000000000000000081526004016106d290614476565b60405180910390fd5b8073ffffffffffffffffffffffffffffffffffffffff166106fa6121e4565b73ffffffffffffffffffffffffffffffffffffffff1614806107295750610728816107236121e4565b612023565b5b610768576040517f08c379a000000000000000000000000000000000000000000000000000000000815260040161075f906144b6565b60405180910390fd5b61077283836121ec565b505050565b6060600061078560076122a5565b9050600061079360086122a5565b61079d60076122a5565b6107a791906146d4565b90506000808267ffffffffffffffff8111156107ec577f4e487b7100000000000000000000000000000000000000000000000000000000600052604160045260246000fd5b60405190808252806020026020018201604052801561082557816020015b610812613614565b81526020019060019003908161080a5790505b50905060005b84811015610a21573073ffffffffffffffffffffffffffffffffffffffff16600c600060018461085b919061467e565b815260200190815260200160002060020160009054906101000a900473ffffffffffffffffffffffffffffffffffffffff1673ffffffffffffffffffffffffffffffffffffffff161415610a0e5760006001826108b8919061467e565b90506000600c60008381526020019081526020016000209050806040518060a0016040529081600082015481526020016001820160009054906101000a900473ffffffffffffffffffffffffffffffffffffffff1673ffffffffffffffffffffffffffffffffffffffff1673ffffffffffffffffffffffffffffffffffffffff1681526020016002820160009054906101000a900473ffffffffffffffffffffffffffffffffffffffff1673ffffffffffffffffffffffffffffffffffffffff1673ffffffffffffffffffffffffffffffffffffffff168152602001600382015481526020016004820160009054906101000a900460ff1615151515815250508486815181106109f1577f4e487b7100000000000000000000000000000000000000000000000000000000600052603260045260246000fd5b6020026020010181905250600185610a09919061467e565b945050505b8080610a199061485d565b91505061082b565b508094505050505090565b6000600a54905090565b60606000610a4460076122a5565b905060008060005b83811015610aed573373ffffffffffffffffffffffffffffffffffffffff16600c6000600184610a7c919061467e565b815260200190815260200160002060020160009054906101000a900473ffffffffffffffffffffffffffffffffffffffff1673ffffffffffffffffffffffffffffffffffffffff161415610ada57600183610ad7919061467e565b92505b8080610ae59061485d565b915050610a4c565b5060008267ffffffffffffffff811115610b30577f4e487b7100000000000000000000000000000000000000000000000000000000600052604160045260246000fd5b604051908082528060200260200182016040528015610b6957816020015b610b56613614565b815260200190600190039081610b4e5790505b50905060005b84811015610d65573373ffffffffffffffffffffffffffffffffffffffff16600c6000600184610b9f919061467e565b815260200190815260200160002060020160009054906101000a900473ffffffffffffffffffffffffffffffffffffffff1673ffffffffffffffffffffffffffffffffffffffff161415610d52576000600182610bfc919061467e565b90506000600c60008381526020019081526020016000209050806040518060a0016040529081600082015481526020016001820160009054906101000a900473ffffffffffffffffffffffffffffffffffffffff1673ffffffffffffffffffffffffffffffffffffffff1673ffffffffffffffffffffffffffffffffffffffff1681526020016002820160009054906101000a900473ffffffffffffffffffffffffffffffffffffffff1673ffffffffffffffffffffffffffffffffffffffff1673ffffffffffffffffffffffffffffffffffffffff168152602001600382015481526020016004820160009054906101000a900460ff161515151581525050848681518110610d35577f4e487b7100000000000000000000000000000000000000000000000000000000600052603260045260246000fd5b6020026020010181905250600185610d4d919061467e565b945050505b8080610d5d9061485d565b915050610b6f565b508094505050505090565b610d81610d7b6121e4565b826122b3565b610dc0576040517f08c379a0000000000000000000000000000000000000000000000000000000008152600401610db7906142b6565b60405180910390fd5b610dcb838383612348565b505050565b610deb838383604051806020016040528060008152506117bd565b505050565b60606000610dfe60076122a5565b905060008060005b83811015610ea7573373ffffffffffffffffffffffffffffffffffffffff16600c6000600184610e36919061467e565b815260200190815260200160002060010160009054906101000a900473ffffffffffffffffffffffffffffffffffffffff1673ffffffffffffffffffffffffffffffffffffffff161415610e9457600183610e91919061467e565b92505b8080610e9f9061485d565b915050610e06565b5060008267ffffffffffffffff811115610eea577f4e487b7100000000000000000000000000000000000000000000000000000000600052604160045260246000fd5b604051908082528060200260200182016040528015610f2357816020015b610f10613614565b815260200190600190039081610f085790505b50905060005b8481101561111f573373ffffffffffffffffffffffffffffffffffffffff16600c6000600184610f59919061467e565b815260200190815260200160002060010160009054906101000a900473ffffffffffffffffffffffffffffffffffffffff1673ffffffffffffffffffffffffffffffffffffffff16141561110c576000600182610fb6919061467e565b90506000600c60008381526020019081526020016000209050806040518060a0016040529081600082015481526020016001820160009054906101000a900473ffffffffffffffffffffffffffffffffffffffff1673ffffffffffffffffffffffffffffffffffffffff1673ffffffffffffffffffffffffffffffffffffffff1681526020016002820160009054906101000a900473ffffffffffffffffffffffffffffffffffffffff1673ffffffffffffffffffffffffffffffffffffffff1673ffffffffffffffffffffffffffffffffffffffff168152602001600382015481526020016004820160009054906101000a900460ff1615151515815250508486815181106110ef577f4e487b7100000000000000000000000000000000000000000000000000000000600052603260045260246000fd5b6020026020010181905250600185611107919061467e565b945050505b80806111179061485d565b915050610f29565b508094505050505090565b6060600061113860096122a5565b905060008060005b838110156111e1573373ffffffffffffffffffffffffffffffffffffffff16600d6000600184611170919061467e565b815260200190815260200160002060020160009054906101000a900473ffffffffffffffffffffffffffffffffffffffff1673ffffffffffffffffffffffffffffffffffffffff1614156111ce576001836111cb919061467e565b92505b80806111d99061485d565b915050611140565b5060008267ffffffffffffffff811115611224577f4e487b7100000000000000000000000000000000000000000000000000000000600052604160045260246000fd5b60405190808252806020026020018201604052801561125d57816020015b61124a613671565b8152602001906001900390816112425790505b50905060005b848110156114ef573373ffffffffffffffffffffffffffffffffffffffff16600d6000600184611293919061467e565b815260200190815260200160002060020160009054906101000a900473ffffffffffffffffffffffffffffffffffffffff1673ffffffffffffffffffffffffffffffffffffffff1614156114dc5760006001826112f0919061467e565b90506000600d60008381526020019081526020016000209050806040518061010001604052908160008201548152602001600182015481526020016002820160009054906101000a900473ffffffffffffffffffffffffffffffffffffffff1673ffffffffffffffffffffffffffffffffffffffff1673ffffffffffffffffffffffffffffffffffffffff1681526020016003820160009054906101000a900473ffffffffffffffffffffffffffffffffffffffff1673ffffffffffffffffffffffffffffffffffffffff1673ffffffffffffffffffffffffffffffffffffffff168152602001600482015481526020016005820180546113f0906147fa565b80601f016020809104026020016040519081016040528092919081815260200182805461141c906147fa565b80156114695780601f1061143e57610100808354040283529160200191611469565b820191906000526020600020905b81548152906001019060200180831161144c57829003601f168201915b50505050508152602001600682015481526020016007820154815250508486815181106114bf577f4e487b7100000000000000000000000000000000000000000000000000000000600052603260045260246000fd5b60200260200101819052506001856114d7919061467e565b945050505b80806114e79061485d565b915050611263565b508094505050505090565b60008061150683612642565b9050600073ffffffffffffffffffffffffffffffffffffffff168173ffffffffffffffffffffffffffffffffffffffff161415611578576040517f08c379a000000000000000000000000000000000000000000000000000000000815260040161156f90614456565b60405180910390fd5b80915050919050565b60008073ffffffffffffffffffffffffffffffffffffffff168273ffffffffffffffffffffffffffffffffffffffff1614156115f2576040517f08c379a00000000000000000000000000000000000000000000000000000000081526004016115e9906143b6565b60405180910390fd5b600360008373ffffffffffffffffffffffffffffffffffffffff1673ffffffffffffffffffffffffffffffffffffffff168152602001908152602001600020549050919050565b6000611645600761267f565b600061165160076122a5565b905061165d3382612695565b61166781856128b3565b611671818461295e565b8091505092915050565b60606001805461168a906147fa565b80601f01602080910402602001604051908101604052809291908181526020018280546116b6906147fa565b80156117035780601f106116d857610100808354040283529160200191611703565b820191906000526020600020905b8154815290600101906020018083116116e657829003601f168201915b5050505050905090565b61171f6117186121e4565b8383612d0a565b5050565b3373ffffffffffffffffffffffffffffffffffffffff16600b60009054906101000a900473ffffffffffffffffffffffffffffffffffffffff1673ffffffffffffffffffffffffffffffffffffffff16146117b3576040517f08c379a00000000000000000000000000000000000000000000000000000000081526004016117aa906144d6565b60405180910390fd5b80600a8190555050565b6117ce6117c86121e4565b836122b3565b61180d576040517f08c379a0000000000000000000000000000000000000000000000000000000008152600401611804906142b6565b60405180910390fd5b61181984848484612e77565b50505050565b6000600c60008381526020019081526020016000206003015490506000600c600084815260200190815260200160002060010160009054906101000a900473ffffffffffffffffffffffffffffffffffffffff1690508134146118b7576040517f08c379a00000000000000000000000000000000000000000000000000000000081526004016118ae906143f6565b60405180910390fd5b60006118c284612ed3565b90506000600d60008381526020019081526020016000209050338160030160006101000a81548173ffffffffffffffffffffffffffffffffffffffff021916908373ffffffffffffffffffffffffffffffffffffffff1602179055506040518060400160405280600481526020017f534f4c440000000000000000000000000000000000000000000000000000000081525081600501908051906020019061196b9291906136e2565b5042816007018190555033600c600087815260200190815260200160002060020160006101000a81548173ffffffffffffffffffffffffffffffffffffffff021916908373ffffffffffffffffffffffffffffffffffffffff1602179055506001600c600087815260200190815260200160002060040160006101000a81548160ff0219169083151502179055506000600c600087815260200190815260200160002060010160006101000a81548173ffffffffffffffffffffffffffffffffffffffff021916908373ffffffffffffffffffffffffffffffffffffffff160217905550611a59600861267f565b611a64303387612348565b600b60009054906101000a900473ffffffffffffffffffffffffffffffffffffffff1673ffffffffffffffffffffffffffffffffffffffff166108fc600a549081150290604051600060405180830381858888f19350505050158015611ace573d6000803e3d6000fd5b508273ffffffffffffffffffffffffffffffffffffffff166108fc349081150290604051600060405180830381858888f19350505050158015611b15573d6000803e3d6000fd5b5082600c600087815260200190815260200160002060010160006101000a81548173ffffffffffffffffffffffffffffffffffffffff021916908373ffffffffffffffffffffffffffffffffffffffff1602179055505050505050565b6060611b7d82612199565b6000600660008481526020019081526020016000208054611b9d906147fa565b80601f0160208091040260200160405190810160405280929190818152602001828054611bc9906147fa565b8015611c165780601f10611beb57610100808354040283529160200191611c16565b820191906000526020600020905b815481529060010190602001808311611bf957829003601f168201915b505050505090506000611c27612f6d565b9050600081511415611c3d578192505050611c80565b600082511115611c72578082604051602001611c5a929190614165565b60405160208183030381529060405292505050611c80565b611c7b84612f84565b925050505b919050565b3373ffffffffffffffffffffffffffffffffffffffff16600c600084815260200190815260200160002060020160009054906101000a900473ffffffffffffffffffffffffffffffffffffffff1673ffffffffffffffffffffffffffffffffffffffff1614611d29576040517f08c379a0000000000000000000000000000000000000000000000000000000008152600401611d2090614436565b60405180910390fd5b600a543414611d6d576040517f08c379a0000000000000000000000000000000000000000000000000000000008152600401611d6490614496565b60405180910390fd5b6000600c600084815260200190815260200160002060040160006101000a81548160ff02191690831515021790555080600c60008481526020019081526020016000206003018190555033600c600084815260200190815260200160002060010160006101000a81548173ffffffffffffffffffffffffffffffffffffffff021916908373ffffffffffffffffffffffffffffffffffffffff16021790555030600c600084815260200190815260200160002060020160006101000a81548173ffffffffffffffffffffffffffffffffffffffff021916908373ffffffffffffffffffffffffffffffffffffffff160217905550611e6b6008612fec565b611e76333084612348565b611e80600961267f565b6000611e8c60096122a5565b90506040518061010001604052808281526020018481526020013373ffffffffffffffffffffffffffffffffffffffff168152602001600073ffffffffffffffffffffffffffffffffffffffff1681526020018381526020016040518060400160405280600781526020017f4c495354494e470000000000000000000000000000000000000000000000000081525081526020014281526020016000815250600d6000838152602001908152602001600020600082015181600001556020820151816001015560408201518160020160006101000a81548173ffffffffffffffffffffffffffffffffffffffff021916908373ffffffffffffffffffffffffffffffffffffffff16021790555060608201518160030160006101000a81548173ffffffffffffffffffffffffffffffffffffffff021916908373ffffffffffffffffffffffffffffffffffffffff1602179055506080820151816004015560a08201518160050190805190602001906120069291906136e2565b5060c0820151816006015560e08201518160070155905050505050565b6000600560008473ffffffffffffffffffffffffffffffffffffffff1673ffffffffffffffffffffffffffffffffffffffff16815260200190815260200160002060008373ffffffffffffffffffffffffffffffffffffffff1673ffffffffffffffffffffffffffffffffffffffff16815260200190815260200160002060009054906101000a900460ff16905092915050565b60007f80ac58cd000000000000000000000000000000000000000000000000000000007bffffffffffffffffffffffffffffffffffffffffffffffffffffffff1916827bffffffffffffffffffffffffffffffffffffffffffffffffffffffff1916148061218257507f5b5e139f000000000000000000000000000000000000000000000000000000007bffffffffffffffffffffffffffffffffffffffffffffffffffffffff1916827bffffffffffffffffffffffffffffffffffffffffffffffffffffffff1916145b80612192575061219182613048565b5b9050919050565b6121a2816130b2565b6121e1576040517f08c379a00000000000000000000000000000000000000000000000000000000081526004016121d890614456565b60405180910390fd5b50565b600033905090565b816004600083815260200190815260200160002060006101000a81548173ffffffffffffffffffffffffffffffffffffffff021916908373ffffffffffffffffffffffffffffffffffffffff160217905550808273ffffffffffffffffffffffffffffffffffffffff1661225f836114fa565b73ffffffffffffffffffffffffffffffffffffffff167f8c5be1e5ebec7d5bd14f71427d1e84f3dd0314c0f7b2291e5b200ac8c7c3b92560405160405180910390a45050565b600081600001549050919050565b6000806122bf836114fa565b90508073ffffffffffffffffffffffffffffffffffffffff168473ffffffffffffffffffffffffffffffffffffffff16148061230157506123008185612023565b5b8061233f57508373ffffffffffffffffffffffffffffffffffffffff1661232784610619565b73ffffffffffffffffffffffffffffffffffffffff16145b91505092915050565b8273ffffffffffffffffffffffffffffffffffffffff16612368826114fa565b73ffffffffffffffffffffffffffffffffffffffff16146123be576040517f08c379a00000000000000000000000000000000000000000000000000000000081526004016123b590614316565b60405180910390fd5b600073ffffffffffffffffffffffffffffffffffffffff168273ffffffffffffffffffffffffffffffffffffffff16141561242e576040517f08c379a000000000000000000000000000000000000000000000000000000000815260040161242590614376565b60405180910390fd5b61243b83838360016130f3565b8273ffffffffffffffffffffffffffffffffffffffff1661245b826114fa565b73ffffffffffffffffffffffffffffffffffffffff16146124b1576040517f08c379a00000000000000000000000000000000000000000000000000000000081526004016124a890614316565b60405180910390fd5b6004600082815260200190815260200160002060006101000a81549073ffffffffffffffffffffffffffffffffffffffff02191690556001600360008573ffffffffffffffffffffffffffffffffffffffff1673ffffffffffffffffffffffffffffffffffffffff168152602001908152602001600020600082825403925050819055506001600360008473ffffffffffffffffffffffffffffffffffffffff1673ffffffffffffffffffffffffffffffffffffffff16815260200190815260200160002060008282540192505081905550816002600083815260200190815260200160002060006101000a81548173ffffffffffffffffffffffffffffffffffffffff021916908373ffffffffffffffffffffffffffffffffffffffff160217905550808273ffffffffffffffffffffffffffffffffffffffff168473ffffffffffffffffffffffffffffffffffffffff167fddf252ad1be2c89b69c2b068fc378daa952ba7f163c4a11628f55a4df523b3ef60405160405180910390a461263d83838360016130f9565b505050565b60006002600083815260200190815260200160002060009054906101000a900473ffffffffffffffffffffffffffffffffffffffff169050919050565b6001816000016000828254019250508190555050565b600073ffffffffffffffffffffffffffffffffffffffff168273ffffffffffffffffffffffffffffffffffffffff161415612705576040517f08c379a00000000000000000000000000000000000000000000000000000000081526004016126fc90614416565b60405180910390fd5b61270e816130b2565b1561274e576040517f08c379a000000000000000000000000000000000000000000000000000000000815260040161274590614336565b60405180910390fd5b61275c6000838360016130f3565b612765816130b2565b156127a5576040517f08c379a000000000000000000000000000000000000000000000000000000000815260040161279c90614336565b60405180910390fd5b6001600360008473ffffffffffffffffffffffffffffffffffffffff1673ffffffffffffffffffffffffffffffffffffffff16815260200190815260200160002060008282540192505081905550816002600083815260200190815260200160002060006101000a81548173ffffffffffffffffffffffffffffffffffffffff021916908373ffffffffffffffffffffffffffffffffffffffff160217905550808273ffffffffffffffffffffffffffffffffffffffff16600073ffffffffffffffffffffffffffffffffffffffff167fddf252ad1be2c89b69c2b068fc378daa952ba7f163c4a11628f55a4df523b3ef60405160405180910390a46128af6000838360016130f9565b5050565b6128bc826130b2565b6128fb576040517f08c379a00000000000000000000000000000000000000000000000000000000081526004016128f2906143d6565b60405180910390fd5b806006600084815260200190815260200160002090805190602001906129229291906136e2565b507ff8e1a15aba9398e019f0b49df1a4fde98ee17ae345cb5f6b5e2c27f5033e8ce7826040516129529190614516565b60405180910390a15050565b600081116129a1576040517f08c379a0000000000000000000000000000000000000000000000000000000008152600401612998906144f6565b60405180910390fd5b600a5434146129e5576040517f08c379a00000000000000000000000000000000000000000000000000000000081526004016129dc90614496565b60405180910390fd5b6040518060a001604052808381526020013373ffffffffffffffffffffffffffffffffffffffff1681526020013073ffffffffffffffffffffffffffffffffffffffff16815260200182815260200160001515815250600c60008481526020019081526020016000206000820151816000015560208201518160010160006101000a81548173ffffffffffffffffffffffffffffffffffffffff021916908373ffffffffffffffffffffffffffffffffffffffff16021790555060408201518160020160006101000a81548173ffffffffffffffffffffffffffffffffffffffff021916908373ffffffffffffffffffffffffffffffffffffffff1602179055506060820151816003015560808201518160040160006101000a81548160ff021916908315150217905550905050612b1e333084612348565b817fb640004f1d14576d0c209e240cad0410e0d8c0c33a09375861fbadae2588a98d3330846000604051612b5594939291906141a4565b60405180910390a2612b67600961267f565b6000612b7360096122a5565b90506040518061010001604052808281526020018481526020013373ffffffffffffffffffffffffffffffffffffffff168152602001600073ffffffffffffffffffffffffffffffffffffffff1681526020018381526020016040518060400160405280600781526020017f4c495354494e470000000000000000000000000000000000000000000000000081525081526020014281526020016000815250600d6000838152602001908152602001600020600082015181600001556020820151816001015560408201518160020160006101000a81548173ffffffffffffffffffffffffffffffffffffffff021916908373ffffffffffffffffffffffffffffffffffffffff16021790555060608201518160030160006101000a81548173ffffffffffffffffffffffffffffffffffffffff021916908373ffffffffffffffffffffffffffffffffffffffff1602179055506080820151816004015560a0820151816005019080519060200190612ced9291906136e2565b5060c0820151816006015560e08201518160070155905050505050565b8173ffffffffffffffffffffffffffffffffffffffff168373ffffffffffffffffffffffffffffffffffffffff161415612d79576040517f08c379a0000000000000000000000000000000000000000000000000000000008152600401612d7090614396565b60405180910390fd5b80600560008573ffffffffffffffffffffffffffffffffffffffff1673ffffffffffffffffffffffffffffffffffffffff16815260200190815260200160002060008473ffffffffffffffffffffffffffffffffffffffff1673ffffffffffffffffffffffffffffffffffffffff16815260200190815260200160002060006101000a81548160ff0219169083151502179055508173ffffffffffffffffffffffffffffffffffffffff168373ffffffffffffffffffffffffffffffffffffffff167f17307eab39ab6107e8899845ad3d59bd9653f200f220920489ca2b5937696c3183604051612e6a9190614279565b60405180910390a3505050565b612e82848484612348565b612e8e848484846130ff565b612ecd576040517f08c379a0000000000000000000000000000000000000000000000000000000008152600401612ec4906142f6565b60405180910390fd5b50505050565b600080612ee060096122a5565b905060008190505b6000811115612f2c5783600d6000838152602001908152602001600020600101541415612f19578092505050612f68565b8080612f24906147d0565b915050612ee8565b506040517f08c379a0000000000000000000000000000000000000000000000000000000008152600401612f5f90614356565b60405180910390fd5b919050565b606060405180602001604052806000815250905090565b6060612f8f82612199565b6000612f99612f6d565b90506000815111612fb95760405180602001604052806000815250612fe4565b80612fc384613296565b604051602001612fd4929190614165565b6040516020818303038152906040525b915050919050565b60008160000154905060008111613038576040517f08c379a000000000000000000000000000000000000000000000000000000000815260040161302f906142d6565b60405180910390fd5b6001810382600001819055505050565b60007f01ffc9a7000000000000000000000000000000000000000000000000000000007bffffffffffffffffffffffffffffffffffffffffffffffffffffffff1916827bffffffffffffffffffffffffffffffffffffffffffffffffffffffff1916149050919050565b60008073ffffffffffffffffffffffffffffffffffffffff166130d483612642565b73ffffffffffffffffffffffffffffffffffffffff1614159050919050565b50505050565b50505050565b60006131208473ffffffffffffffffffffffffffffffffffffffff166133ba565b15613289578373ffffffffffffffffffffffffffffffffffffffff1663150b7a026131496121e4565b8786866040518563ffffffff1660e01b815260040161316b94939291906141e9565b602060405180830381600087803b15801561318557600080fd5b505af19250505080156131b657506040513d601f19601f820116820180604052508101906131b39190613a8e565b60015b613239573d80600081146131e6576040519150601f19603f3d011682016040523d82523d6000602084013e6131eb565b606091505b50600081511415613231576040517f08c379a0000000000000000000000000000000000000000000000000000000008152600401613228906142f6565b60405180910390fd5b805181602001fd5b63150b7a0260e01b7bffffffffffffffffffffffffffffffffffffffffffffffffffffffff1916817bffffffffffffffffffffffffffffffffffffffffffffffffffffffff19161491505061328e565b600190505b949350505050565b6060600060016132a5846133dd565b01905060008167ffffffffffffffff8111156132ea577f4e487b7100000000000000000000000000000000000000000000000000000000600052604160045260246000fd5b6040519080825280601f01601f19166020018201604052801561331c5781602001600182028036833780820191505090505b509050600082602001820190505b6001156133af578080600190039150507f3031323334353637383961626364656600000000000000000000000000000000600a86061a8153600a8581613399577f4e487b7100000000000000000000000000000000000000000000000000000000600052601260045260246000fd5b04945060008514156133aa576133af565b61332a565b819350505050919050565b6000808273ffffffffffffffffffffffffffffffffffffffff163b119050919050565b600080600090507a184f03e93ff9f4daa797ed6e38ed64bf6a1f0100000000000000008310613461577a184f03e93ff9f4daa797ed6e38ed64bf6a1f0100000000000000008381613457577f4e487b7100000000000000000000000000000000000000000000000000000000600052601260045260246000fd5b0492506040810190505b6d04ee2d6d415b85acef810000000083106134c4576d04ee2d6d415b85acef810000000083816134ba577f4e487b7100000000000000000000000000000000000000000000000000000000600052601260045260246000fd5b0492506020810190505b662386f26fc10000831061351957662386f26fc10000838161350f577f4e487b7100000000000000000000000000000000000000000000000000000000600052601260045260246000fd5b0492506010810190505b6305f5e1008310613568576305f5e100838161355e577f4e487b7100000000000000000000000000000000000000000000000000000000600052601260045260246000fd5b0492506008810190505b61271083106135b35761271083816135a9577f4e487b7100000000000000000000000000000000000000000000000000000000600052601260045260246000fd5b0492506004810190505b606483106135fc57606483816135f2577f4e487b7100000000000000000000000000000000000000000000000000000000600052601260045260246000fd5b0492506002810190505b600a831061360b576001810190505b80915050919050565b6040518060a0016040528060008152602001600073ffffffffffffffffffffffffffffffffffffffff168152602001600073ffffffffffffffffffffffffffffffffffffffff168152602001600081526020016000151581525090565b6040518061010001604052806000815260200160008152602001600073ffffffffffffffffffffffffffffffffffffffff168152602001600073ffffffffffffffffffffffffffffffffffffffff168152602001600081526020016060815260200160008152602001600081525090565b8280546136ee906147fa565b90600052602060002090601f0160209004810192826137105760008555613757565b82601f1061372957805160ff1916838001178555613757565b82800160010185558215613757579182015b8281111561375657825182559160200191906001019061373b565b5b5090506137649190613768565b5090565b5b80821115613781576000816000905550600101613769565b5090565b600061379861379384614556565b614531565b9050828152602081018484840111156137b057600080fd5b6137bb84828561478e565b509392505050565b60006137d66137d184614587565b614531565b9050828152602081018484840111156137ee57600080fd5b6137f984828561478e565b509392505050565b60008135905061381081614e17565b92915050565b60008135905061382581614e2e565b92915050565b60008135905061383a81614e45565b92915050565b60008151905061384f81614e45565b92915050565b600082601f83011261386657600080fd5b8135613876848260208601613785565b91505092915050565b600082601f83011261389057600080fd5b81356138a08482602086016137c3565b91505092915050565b6000813590506138b881614e5c565b92915050565b6000602082840312156138d057600080fd5b60006138de84828501613801565b91505092915050565b600080604083850312156138fa57600080fd5b600061390885828601613801565b925050602061391985828601613801565b9150509250929050565b60008060006060848603121561393857600080fd5b600061394686828701613801565b935050602061395786828701613801565b9250506040613968868287016138a9565b9150509250925092565b6000806000806080858703121561398857600080fd5b600061399687828801613801565b94505060206139a787828801613801565b93505060406139b8878288016138a9565b925050606085013567ffffffffffffffff8111156139d557600080fd5b6139e187828801613855565b91505092959194509250565b60008060408385031215613a0057600080fd5b6000613a0e85828601613801565b9250506020613a1f85828601613816565b9150509250929050565b60008060408385031215613a3c57600080fd5b6000613a4a85828601613801565b9250506020613a5b858286016138a9565b9150509250929050565b600060208284031215613a7757600080fd5b6000613a858482850161382b565b91505092915050565b600060208284031215613aa057600080fd5b6000613aae84828501613840565b91505092915050565b60008060408385031215613aca57600080fd5b600083013567ffffffffffffffff811115613ae457600080fd5b613af08582860161387f565b9250506020613b01858286016138a9565b9150509250929050565b600060208284031215613b1d57600080fd5b6000613b2b848285016138a9565b91505092915050565b60008060408385031215613b4757600080fd5b6000613b55858286016138a9565b9250506020613b66858286016138a9565b9150509250929050565b6000613b7c838361402f565b60a08301905092915050565b6000613b948383614097565b905092915050565b613ba58161471a565b82525050565b613bb481614708565b82525050565b613bc381614708565b82525050565b6000613bd4826145d8565b613bde818561461e565b9350613be9836145b8565b8060005b83811015613c1a578151613c018882613b70565b9750613c0c83614604565b925050600181019050613bed565b5085935050505092915050565b6000613c32826145e3565b613c3c818561462f565b935083602082028501613c4e856145c8565b8060005b85811015613c8a5784840389528151613c6b8582613b88565b9450613c7683614611565b925060208a01995050600181019050613c52565b50829750879550505050505092915050565b613ca58161472c565b82525050565b613cb48161472c565b82525050565b6000613cc5826145ee565b613ccf8185614640565b9350613cdf81856020860161479d565b613ce881614933565b840191505092915050565b6000613cfe826145f9565b613d088185614651565b9350613d1881856020860161479d565b613d2181614933565b840191505092915050565b6000613d37826145f9565b613d418185614662565b9350613d5181856020860161479d565b613d5a81614933565b840191505092915050565b6000613d70826145f9565b613d7a8185614673565b9350613d8a81856020860161479d565b80840191505092915050565b6000613da3602d83614662565b9150613dae82614944565b604082019050919050565b6000613dc6601b83614662565b9150613dd182614993565b602082019050919050565b6000613de9603283614662565b9150613df4826149bc565b604082019050919050565b6000613e0c602583614662565b9150613e1782614a0b565b604082019050919050565b6000613e2f601c83614662565b9150613e3a82614a5a565b602082019050919050565b6000613e52601583614662565b9150613e5d82614a83565b602082019050919050565b6000613e75602483614662565b9150613e8082614aac565b604082019050919050565b6000613e98601983614662565b9150613ea382614afb565b602082019050919050565b6000613ebb602983614662565b9150613ec682614b24565b604082019050919050565b6000613ede602e83614662565b9150613ee982614b73565b604082019050919050565b6000613f01604083614662565b9150613f0c82614bc2565b604082019050919050565b6000613f24602083614662565b9150613f2f82614c11565b602082019050919050565b6000613f47602a83614662565b9150613f5282614c3a565b604082019050919050565b6000613f6a601883614662565b9150613f7582614c89565b602082019050919050565b6000613f8d602183614662565b9150613f9882614cb2565b604082019050919050565b6000613fb0602483614662565b9150613fbb82614d01565b604082019050919050565b6000613fd3603d83614662565b9150613fde82614d50565b604082019050919050565b6000613ff6603083614662565b915061400182614d9f565b604082019050919050565b6000614019601c83614662565b915061402482614dee565b602082019050919050565b60a0820160008201516140456000850182614147565b5060208201516140586020850182613b9c565b50604082015161406b6040850182613b9c565b50606082015161407e6060850182614147565b5060808201516140916080850182613c9c565b50505050565b6000610100830160008301516140b06000860182614147565b5060208301516140c36020860182614147565b5060408301516140d66040860182613bab565b5060608301516140e96060860182613bab565b5060808301516140fc6080860182614147565b5060a083015184820360a08601526141148282613cf3565b91505060c083015161412960c0860182614147565b5060e083015161413c60e0860182614147565b508091505092915050565b61415081614784565b82525050565b61415f81614784565b82525050565b60006141718285613d65565b915061417d8284613d65565b91508190509392505050565b600060208201905061419e6000830184613bba565b92915050565b60006080820190506141b96000830187613bba565b6141c66020830186613bba565b6141d36040830185614156565b6141e06060830184613cab565b95945050505050565b60006080820190506141fe6000830187613bba565b61420b6020830186613bba565b6142186040830185614156565b818103606083015261422a8184613cba565b905095945050505050565b6000602082019050818103600083015261424f8184613bc9565b905092915050565b600060208201905081810360008301526142718184613c27565b905092915050565b600060208201905061428e6000830184613cab565b92915050565b600060208201905081810360008301526142ae8184613d2c565b905092915050565b600060208201905081810360008301526142cf81613d96565b9050919050565b600060208201905081810360008301526142ef81613db9565b9050919050565b6000602082019050818103600083015261430f81613ddc565b9050919050565b6000602082019050818103600083015261432f81613dff565b9050919050565b6000602082019050818103600083015261434f81613e22565b9050919050565b6000602082019050818103600083015261436f81613e45565b9050919050565b6000602082019050818103600083015261438f81613e68565b9050919050565b600060208201905081810360008301526143af81613e8b565b9050919050565b600060208201905081810360008301526143cf81613eae565b9050919050565b600060208201905081810360008301526143ef81613ed1565b9050919050565b6000602082019050818103600083015261440f81613ef4565b9050919050565b6000602082019050818103600083015261442f81613f17565b9050919050565b6000602082019050818103600083015261444f81613f3a565b9050919050565b6000602082019050818103600083015261446f81613f5d565b9050919050565b6000602082019050818103600083015261448f81613f80565b9050919050565b600060208201905081810360008301526144af81613fa3565b9050919050565b600060208201905081810360008301526144cf81613fc6565b9050919050565b600060208201905081810360008301526144ef81613fe9565b9050919050565b6000602082019050818103600083015261450f8161400c565b9050919050565b600060208201905061452b6000830184614156565b92915050565b600061453b61454c565b9050614547828261482c565b919050565b6000604051905090565b600067ffffffffffffffff82111561457157614570614904565b5b61457a82614933565b9050602081019050919050565b600067ffffffffffffffff8211156145a2576145a1614904565b5b6145ab82614933565b9050602081019050919050565b6000819050602082019050919050565b6000819050602082019050919050565b600081519050919050565b600081519050919050565b600081519050919050565b600081519050919050565b6000602082019050919050565b6000602082019050919050565b600082825260208201905092915050565b600082825260208201905092915050565b600082825260208201905092915050565b600082825260208201905092915050565b600082825260208201905092915050565b600081905092915050565b600061468982614784565b915061469483614784565b9250827fffffffffffffffffffffffffffffffffffffffffffffffffffffffffffffffff038211156146c9576146c86148a6565b5b828201905092915050565b60006146df82614784565b91506146ea83614784565b9250828210156146fd576146fc6148a6565b5b828203905092915050565b600061471382614764565b9050919050565b600061472582614764565b9050919050565b60008115159050919050565b60007fffffffff0000000000000000000000000000000000000000000000000000000082169050919050565b600073ffffffffffffffffffffffffffffffffffffffff82169050919050565b6000819050919050565b82818337600083830152505050565b60005b838110156147bb5780820151818401526020810190506147a0565b838111156147ca576000848401525b50505050565b60006147db82614784565b915060008214156147ef576147ee6148a6565b5b600182039050919050565b6000600282049050600182168061481257607f821691505b60208210811415614826576148256148d5565b5b50919050565b61483582614933565b810181811067ffffffffffffffff8211171561485457614853614904565b5b80604052505050565b600061486882614784565b91507fffffffffffffffffffffffffffffffffffffffffffffffffffffffffffffffff82141561489b5761489a6148a6565b5b600182019050919050565b7f4e487b7100000000000000000000000000000000000000000000000000000000600052601160045260246000fd5b7f4e487b7100000000000000000000000000000000000000000000000000000000600052602260045260246000fd5b7f4e487b7100000000000000000000000000000000000000000000000000000000600052604160045260246000fd5b6000601f19601f8301169050919050565b7f4552433732313a2063616c6c6572206973206e6f7420746f6b656e206f776e6560008201527f72206f7220617070726f76656400000000000000000000000000000000000000602082015250565b7f436f756e7465723a2064656372656d656e74206f766572666c6f770000000000600082015250565b7f4552433732313a207472616e7366657220746f206e6f6e20455243373231526560008201527f63656976657220696d706c656d656e7465720000000000000000000000000000602082015250565b7f4552433732313a207472616e736665722066726f6d20696e636f72726563742060008201527f6f776e6572000000000000000000000000000000000000000000000000000000602082015250565b7f4552433732313a20746f6b656e20616c7265616479206d696e74656400000000600082015250565b7f5472616e73616374696f6e206e6f7420666f756e640000000000000000000000600082015250565b7f4552433732313a207472616e7366657220746f20746865207a65726f2061646460008201527f7265737300000000000000000000000000000000000000000000000000000000602082015250565b7f4552433732313a20617070726f766520746f2063616c6c657200000000000000600082015250565b7f4552433732313a2061646472657373207a65726f206973206e6f74206120766160008201527f6c6964206f776e65720000000000000000000000000000000000000000000000602082015250565b7f45524337323155524953746f726167653a2055524920736574206f66206e6f6e60008201527f6578697374656e7420746f6b656e000000000000000000000000000000000000602082015250565b7f506c65617365207375626d6974207468652061736b696e67207072696365206960008201527f6e206f7264657220746f20636f6d706c65746520746865207075726368617365602082015250565b7f4552433732313a206d696e7420746f20746865207a65726f2061646472657373600082015250565b7f4f6e6c79206974656d206f776e65722063616e20706572666f726d207468697360008201527f206f7065726174696f6e00000000000000000000000000000000000000000000602082015250565b7f4552433732313a20696e76616c696420746f6b656e2049440000000000000000600082015250565b7f4552433732313a20617070726f76616c20746f2063757272656e74206f776e6560008201527f7200000000000000000000000000000000000000000000000000000000000000602082015250565b7f5072696365206d75737420626520657175616c20746f206c697374696e67207060008201527f7269636500000000000000000000000000000000000000000000000000000000602082015250565b7f4552433732313a20617070726f76652063616c6c6572206973206e6f7420746f60008201527f6b656e206f776e6572206f7220617070726f76656420666f7220616c6c000000602082015250565b7f4f6e6c79206d61726b6574706c616365206f776e65722063616e20757064617460008201527f65206c697374696e672070726963652e00000000000000000000000000000000602082015250565b7f5072696365206d757374206265206174206c6561737420312077656900000000600082015250565b614e2081614708565b8114614e2b57600080fd5b50565b614e378161472c565b8114614e4257600080fd5b50565b614e4e81614738565b8114614e5957600080fd5b50565b614e6581614784565b8114614e7057600080fd5b5056fea2646970667358221220f505fcc8c50db3d7be4a22c2163c0ead6b619095a1374e90be74432dc0b692ae64736f6c63430008040033",
  "linkReferences": {},
  "deployedLinkReferences": {}
}