{
  "_format": "hh-sol-artifact-1",
  "contractName": "NFTMarketplace",
  "sourceName": "contracts/NFTMarketplace.sol",
  "abi": [
    {
      "inputs": [],
      "stateMutability": "nonpayable",
      "type": "constructor"
    },
    {
      "anonymous": false,
      "inputs": [
        {
          "indexed": true,
          "internalType": "address",
          "name": "owner",
          "type": "address"
        },
        {
          "indexed": true,
          "internalType": "address",
          "name": "approved",
          "type": "address"
        },
        {
          "indexed": true,
          "internalType": "uint256",
          "name": "tokenId",
          "type": "uint256"
        }
      ],
      "name": "Approval",
      "type": "event"
    },
    {
      "anonymous": false,
      "inputs": [
        {
          "indexed": true,
          "internalType": "address",
          "name": "owner",
          "type": "address"
        },
        {
          "indexed": true,
          "internalType": "address",
          "name": "operator",
          "type": "address"
        },
        {
          "indexed": false,
          "internalType": "bool",
          "name": "approved",
          "type": "bool"
        }
      ],
      "name": "ApprovalForAll",
      "type": "event"
    },
    {
      "anonymous": false,
      "inputs": [
        {
          "indexed": false,
          "internalType": "uint256",
          "name": "_fromTokenId",
          "type": "uint256"
        },
        {
          "indexed": false,
          "internalType": "uint256",
          "name": "_toTokenId",
          "type": "uint256"
        }
      ],
      "name": "BatchMetadataUpdate",
      "type": "event"
    },
    {
      "anonymous": false,
      "inputs": [
        {
          "indexed": true,
          "internalType": "uint256",
          "name": "tokenId",
          "type": "uint256"
        },
        {
          "indexed": false,
          "internalType": "address",
          "name": "seller",
          "type": "address"
        },
        {
          "indexed": false,
          "internalType": "address",
          "name": "owner",
          "type": "address"
        },
        {
          "indexed": false,
          "internalType": "uint256",
          "name": "price",
          "type": "uint256"
        },
        {
          "indexed": false,
          "internalType": "bool",
          "name": "sold",
          "type": "bool"
        }
      ],
      "name": "MarketItemCreated",
      "type": "event"
    },
    {
      "anonymous": false,
      "inputs": [
        {
          "indexed": false,
          "internalType": "uint256",
          "name": "_tokenId",
          "type": "uint256"
        }
      ],
      "name": "MetadataUpdate",
      "type": "event"
    },
    {
      "anonymous": false,
      "inputs": [
        {
          "indexed": true,
          "internalType": "address",
          "name": "from",
          "type": "address"
        },
        {
          "indexed": true,
          "internalType": "address",
          "name": "to",
          "type": "address"
        },
        {
          "indexed": true,
          "internalType": "uint256",
          "name": "tokenId",
          "type": "uint256"
        }
      ],
      "name": "Transfer",
      "type": "event"
    },
    {
      "inputs": [
        {
          "internalType": "address",
          "name": "to",
          "type": "address"
        },
        {
          "internalType": "uint256",
          "name": "tokenId",
          "type": "uint256"
        }
      ],
      "name": "approve",
      "outputs": [],
      "stateMutability": "nonpayable",
      "type": "function"
    },
    {
      "inputs": [
        {
          "internalType": "address",
          "name": "owner",
          "type": "address"
        }
      ],
      "name": "balanceOf",
      "outputs": [
        {
          "internalType": "uint256",
          "name": "",
          "type": "uint256"
        }
      ],
      "stateMutability": "view",
      "type": "function"
    },
    {
      "inputs": [
        {
          "internalType": "uint256",
          "name": "tokenId",
          "type": "uint256"
        }
      ],
      "name": "createMarketSale",
      "outputs": [],
      "stateMutability": "payable",
      "type": "function"
    },
    {
      "inputs": [
        {
          "internalType": "string",
          "name": "tokenURI",
          "type": "string"
        },
        {
          "internalType": "uint256",
          "name": "price",
          "type": "uint256"
        }
      ],
      "name": "createToken",
      "outputs": [
        {
          "internalType": "uint256",
          "name": "",
          "type": "uint256"
        }
      ],
      "stateMutability": "payable",
      "type": "function"
    },
    {
      "inputs": [],
      "name": "fetchItemsListed",
      "outputs": [
        {
          "components": [
            {
              "internalType": "uint256",
              "name": "tokenId",
              "type": "uint256"
            },
            {
              "internalType": "address payable",
              "name": "seller",
              "type": "address"
            },
            {
              "internalType": "address payable",
              "name": "owner",
              "type": "address"
            },
            {
              "internalType": "uint256",
              "name": "price",
              "type": "uint256"
            },
            {
              "internalType": "bool",
              "name": "sold",
              "type": "bool"
            }
          ],
          "internalType": "struct NFTMarketplace.MarketItem[]",
          "name": "",
          "type": "tuple[]"
        }
      ],
      "stateMutability": "view",
      "type": "function"
    },
    {
      "inputs": [],
      "name": "fetchMarketItems",
      "outputs": [
        {
          "components": [
            {
              "internalType": "uint256",
              "name": "tokenId",
              "type": "uint256"
            },
            {
              "internalType": "address payable",
              "name": "seller",
              "type": "address"
            },
            {
              "internalType": "address payable",
              "name": "owner",
              "type": "address"
            },
            {
              "internalType": "uint256",
              "name": "price",
              "type": "uint256"
            },
            {
              "internalType": "bool",
              "name": "sold",
              "type": "bool"
            }
          ],
          "internalType": "struct NFTMarketplace.MarketItem[]",
          "name": "",
          "type": "tuple[]"
        }
      ],
      "stateMutability": "view",
      "type": "function"
    },
    {
      "inputs": [],
      "name": "fetchMyNFTs",
      "outputs": [
        {
          "components": [
            {
              "internalType": "uint256",
              "name": "tokenId",
              "type": "uint256"
            },
            {
              "internalType": "address payable",
              "name": "seller",
              "type": "address"
            },
            {
              "internalType": "address payable",
              "name": "owner",
              "type": "address"
            },
            {
              "internalType": "uint256",
              "name": "price",
              "type": "uint256"
            },
            {
              "internalType": "bool",
              "name": "sold",
              "type": "bool"
            }
          ],
          "internalType": "struct NFTMarketplace.MarketItem[]",
          "name": "",
          "type": "tuple[]"
        }
      ],
      "stateMutability": "view",
      "type": "function"
    },
    {
      "inputs": [
        {
          "internalType": "uint256",
          "name": "tokenId",
          "type": "uint256"
        }
      ],
      "name": "getApproved",
      "outputs": [
        {
          "internalType": "address",
          "name": "",
          "type": "address"
        }
      ],
      "stateMutability": "view",
      "type": "function"
    },
    {
      "inputs": [],
      "name": "getListingPrice",
      "outputs": [
        {
          "internalType": "uint256",
          "name": "",
          "type": "uint256"
        }
      ],
      "stateMutability": "view",
      "type": "function"
    },
    {
      "inputs": [
        {
          "internalType": "address",
          "name": "owner",
          "type": "address"
        },
        {
          "internalType": "address",
          "name": "operator",
          "type": "address"
        }
      ],
      "name": "isApprovedForAll",
      "outputs": [
        {
          "internalType": "bool",
          "name": "",
          "type": "bool"
        }
      ],
      "stateMutability": "view",
      "type": "function"
    },
    {
      "inputs": [],
      "name": "name",
      "outputs": [
        {
          "internalType": "string",
          "name": "",
          "type": "string"
        }
      ],
      "stateMutability": "view",
      "type": "function"
    },
    {
      "inputs": [
        {
          "internalType": "uint256",
          "name": "tokenId",
          "type": "uint256"
        }
      ],
      "name": "ownerOf",
      "outputs": [
        {
          "internalType": "address",
          "name": "",
          "type": "address"
        }
      ],
      "stateMutability": "view",
      "type": "function"
    },
    {
      "inputs": [
        {
          "internalType": "uint256",
          "name": "tokenId",
          "type": "uint256"
        },
        {
          "internalType": "uint256",
          "name": "price",
          "type": "uint256"
        }
      ],
      "name": "resellToken",
      "outputs": [],
      "stateMutability": "payable",
      "type": "function"
    },
    {
      "inputs": [
        {
          "internalType": "address",
          "name": "from",
          "type": "address"
        },
        {
          "internalType": "address",
          "name": "to",
          "type": "address"
        },
        {
          "internalType": "uint256",
          "name": "tokenId",
          "type": "uint256"
        }
      ],
      "name": "safeTransferFrom",
      "outputs": [],
      "stateMutability": "nonpayable",
      "type": "function"
    },
    {
      "inputs": [
        {
          "internalType": "address",
          "name": "from",
          "type": "address"
        },
        {
          "internalType": "address",
          "name": "to",
          "type": "address"
        },
        {
          "internalType": "uint256",
          "name": "tokenId",
          "type": "uint256"
        },
        {
          "internalType": "bytes",
          "name": "data",
          "type": "bytes"
        }
      ],
      "name": "safeTransferFrom",
      "outputs": [],
      "stateMutability": "nonpayable",
      "type": "function"
    },
    {
      "inputs": [
        {
          "internalType": "address",
          "name": "operator",
          "type": "address"
        },
        {
          "internalType": "bool",
          "name": "approved",
          "type": "bool"
        }
      ],
      "name": "setApprovalForAll",
      "outputs": [],
      "stateMutability": "nonpayable",
      "type": "function"
    },
    {
      "inputs": [
        {
          "internalType": "bytes4",
          "name": "interfaceId",
          "type": "bytes4"
        }
      ],
      "name": "supportsInterface",
      "outputs": [
        {
          "internalType": "bool",
          "name": "",
          "type": "bool"
        }
      ],
      "stateMutability": "view",
      "type": "function"
    },
    {
      "inputs": [],
      "name": "symbol",
      "outputs": [
        {
          "internalType": "string",
          "name": "",
          "type": "string"
        }
      ],
      "stateMutability": "view",
      "type": "function"
    },
    {
      "inputs": [
        {
          "internalType": "uint256",
          "name": "tokenId",
          "type": "uint256"
        }
      ],
      "name": "tokenURI",
      "outputs": [
        {
          "internalType": "string",
          "name": "",
          "type": "string"
        }
      ],
      "stateMutability": "view",
      "type": "function"
    },
    {
      "inputs": [
        {
          "internalType": "address",
          "name": "from",
          "type": "address"
        },
        {
          "internalType": "address",
          "name": "to",
          "type": "address"
        },
        {
          "internalType": "uint256",
          "name": "tokenId",
          "type": "uint256"
        }
      ],
      "name": "transferFrom",
      "outputs": [],
      "stateMutability": "nonpayable",
      "type": "function"
    },
    {
      "inputs": [
        {
          "internalType": "uint256",
          "name": "_listingPrice",
          "type": "uint256"
        }
      ],
      "name": "updateListingPrice",
      "outputs": [],
      "stateMutability": "payable",
      "type": "function"
    }
  ],
  "bytecode": "0x60806040526658d15e176280006009553480156200001c57600080fd5b506040518060400160405280601081526020017f4d657461766572736520546f6b656e73000000000000000000000000000000008152506040518060400160405280600481526020017f4d455454000000000000000000000000000000000000000000000000000000008152508160009080519060200190620000a192919062000104565b508060019080519060200190620000ba92919062000104565b50505033600a60006101000a81548173ffffffffffffffffffffffffffffffffffffffff021916908373ffffffffffffffffffffffffffffffffffffffff16021790555062000219565b8280546200011290620001b4565b90600052602060002090601f01602090048101928262000136576000855562000182565b82601f106200015157805160ff191683800117855562000182565b8280016001018555821562000182579182015b828111156200018157825182559160200191906001019062000164565b5b50905062000191919062000195565b5090565b5b80821115620001b057600081600090555060010162000196565b5090565b60006002820490506001821680620001cd57607f821691505b60208210811415620001e457620001e3620001ea565b5b50919050565b7f4e487b7100000000000000000000000000000000000000000000000000000000600052602260045260246000fd5b61430380620002296000396000f3fe60806040526004361061012a5760003560e01c80636352211e116100ab578063ae677aa31161006f578063ae677aa3146103f9578063b88d4fde14610415578063be9af5361461043e578063c87b56dd1461045a578063e219fc7514610497578063e985e9c5146104b35761012a565b80636352211e146102fb57806370a082311461033857806372b3b6201461037557806395d89b41146103a5578063a22cb465146103d05761012a565b806312e85585116100f257806312e8558514610228578063202e37401461025357806323b872dd1461027e57806342842e0e146102a757806345f8fa80146102d05761012a565b806301ffc9a71461012f57806306fdde031461016c578063081812fc14610197578063095ea7b3146101d45780630f08efe0146101fd575b600080fd5b34801561013b57600080fd5b5061015660048036038101906101519190613142565b6104f0565b6040516101639190613790565b60405180910390f35b34801561017857600080fd5b50610181610551565b60405161018e91906137ab565b60405180910390f35b3480156101a357600080fd5b506101be60048036038101906101b991906131e8565b6105e3565b6040516101cb91906136c2565b60405180910390f35b3480156101e057600080fd5b506101fb60048036038101906101f69190613106565b610629565b005b34801561020957600080fd5b50610212610741565b60405161021f919061376e565b60405180910390f35b34801561023457600080fd5b5061023d6109f6565b60405161024a9190613a0d565b60405180910390f35b34801561025f57600080fd5b50610268610a00565b604051610275919061376e565b60405180910390f35b34801561028a57600080fd5b506102a560048036038101906102a09190613000565b610d3a565b005b3480156102b357600080fd5b506102ce60048036038101906102c99190613000565b610d9a565b005b3480156102dc57600080fd5b506102e5610dba565b6040516102f2919061376e565b60405180910390f35b34801561030757600080fd5b50610322600480360381019061031d91906131e8565b6110f4565b60405161032f91906136c2565b60405180910390f35b34801561034457600080fd5b5061035f600480360381019061035a9190612f9b565b61117b565b60405161036c9190613a0d565b60405180910390f35b61038f600480360381019061038a9190613194565b611233565b60405161039c9190613a0d565b60405180910390f35b3480156103b157600080fd5b506103ba611275565b6040516103c791906137ab565b60405180910390f35b3480156103dc57600080fd5b506103f760048036038101906103f291906130ca565b611307565b005b610413600480360381019061040e91906131e8565b61131d565b005b34801561042157600080fd5b5061043c6004803603810190610437919061304f565b6113b7565b005b610458600480360381019061045391906131e8565b611419565b005b34801561046657600080fd5b50610481600480360381019061047c91906131e8565b6116ac565b60405161048e91906137ab565b60405180910390f35b6104b160048036038101906104ac9190613211565b6117bf565b005b3480156104bf57600080fd5b506104da60048036038101906104d59190612fc4565b6119b4565b6040516104e79190613790565b60405180910390f35b6000634906490660e01b7bffffffffffffffffffffffffffffffffffffffffffffffffffffffff1916827bffffffffffffffffffffffffffffffffffffffffffffffffffffffff1916148061054a575061054982611a48565b5b9050919050565b60606000805461056090613c7d565b80601f016020809104026020016040519081016040528092919081815260200182805461058c90613c7d565b80156105d95780601f106105ae576101008083540402835291602001916105d9565b820191906000526020600020905b8154815290600101906020018083116105bc57829003601f168201915b5050505050905090565b60006105ee82611b2a565b6004600083815260200190815260200160002060009054906101000a900473ffffffffffffffffffffffffffffffffffffffff169050919050565b6000610634826110f4565b90508073ffffffffffffffffffffffffffffffffffffffff168373ffffffffffffffffffffffffffffffffffffffff1614156106a5576040517f08c379a000000000000000000000000000000000000000000000000000000000815260040161069c9061396d565b60405180910390fd5b8073ffffffffffffffffffffffffffffffffffffffff166106c4611b75565b73ffffffffffffffffffffffffffffffffffffffff1614806106f357506106f2816106ed611b75565b6119b4565b5b610732576040517f08c379a0000000000000000000000000000000000000000000000000000000008152600401610729906139ad565b60405180910390fd5b61073c8383611b7d565b505050565b6060600061074f6007611c36565b9050600061075d6008611c36565b6107676007611c36565b6107719190613b81565b90506000808267ffffffffffffffff8111156107b6577f4e487b7100000000000000000000000000000000000000000000000000000000600052604160045260246000fd5b6040519080825280602002602001820160405280156107ef57816020015b6107dc612d62565b8152602001906001900390816107d45790505b50905060005b848110156109eb573073ffffffffffffffffffffffffffffffffffffffff16600b60006001846108259190613b2b565b815260200190815260200160002060020160009054906101000a900473ffffffffffffffffffffffffffffffffffffffff1673ffffffffffffffffffffffffffffffffffffffff1614156109d85760006001826108829190613b2b565b90506000600b60008381526020019081526020016000209050806040518060a0016040529081600082015481526020016001820160009054906101000a900473ffffffffffffffffffffffffffffffffffffffff1673ffffffffffffffffffffffffffffffffffffffff1673ffffffffffffffffffffffffffffffffffffffff1681526020016002820160009054906101000a900473ffffffffffffffffffffffffffffffffffffffff1673ffffffffffffffffffffffffffffffffffffffff1673ffffffffffffffffffffffffffffffffffffffff168152602001600382015481526020016004820160009054906101000a900460ff1615151515815250508486815181106109bb577f4e487b7100000000000000000000000000000000000000000000000000000000600052603260045260246000fd5b60200260200101819052506001856109d39190613b2b565b945050505b80806109e390613ce0565b9150506107f5565b508094505050505090565b6000600954905090565b60606000610a0e6007611c36565b905060008060005b83811015610ab7573373ffffffffffffffffffffffffffffffffffffffff16600b6000600184610a469190613b2b565b815260200190815260200160002060020160009054906101000a900473ffffffffffffffffffffffffffffffffffffffff1673ffffffffffffffffffffffffffffffffffffffff161415610aa457600183610aa19190613b2b565b92505b8080610aaf90613ce0565b915050610a16565b5060008267ffffffffffffffff811115610afa577f4e487b7100000000000000000000000000000000000000000000000000000000600052604160045260246000fd5b604051908082528060200260200182016040528015610b3357816020015b610b20612d62565b815260200190600190039081610b185790505b50905060005b84811015610d2f573373ffffffffffffffffffffffffffffffffffffffff16600b6000600184610b699190613b2b565b815260200190815260200160002060020160009054906101000a900473ffffffffffffffffffffffffffffffffffffffff1673ffffffffffffffffffffffffffffffffffffffff161415610d1c576000600182610bc69190613b2b565b90506000600b60008381526020019081526020016000209050806040518060a0016040529081600082015481526020016001820160009054906101000a900473ffffffffffffffffffffffffffffffffffffffff1673ffffffffffffffffffffffffffffffffffffffff1673ffffffffffffffffffffffffffffffffffffffff1681526020016002820160009054906101000a900473ffffffffffffffffffffffffffffffffffffffff1673ffffffffffffffffffffffffffffffffffffffff1673ffffffffffffffffffffffffffffffffffffffff168152602001600382015481526020016004820160009054906101000a900460ff161515151581525050848681518110610cff577f4e487b7100000000000000000000000000000000000000000000000000000000600052603260045260246000fd5b6020026020010181905250600185610d179190613b2b565b945050505b8080610d2790613ce0565b915050610b39565b508094505050505090565b610d4b610d45611b75565b82611c44565b610d8a576040517f08c379a0000000000000000000000000000000000000000000000000000000008152600401610d81906137cd565b60405180910390fd5b610d95838383611cd9565b505050565b610db5838383604051806020016040528060008152506113b7565b505050565b60606000610dc86007611c36565b905060008060005b83811015610e71573373ffffffffffffffffffffffffffffffffffffffff16600b6000600184610e009190613b2b565b815260200190815260200160002060010160009054906101000a900473ffffffffffffffffffffffffffffffffffffffff1673ffffffffffffffffffffffffffffffffffffffff161415610e5e57600183610e5b9190613b2b565b92505b8080610e6990613ce0565b915050610dd0565b5060008267ffffffffffffffff811115610eb4577f4e487b7100000000000000000000000000000000000000000000000000000000600052604160045260246000fd5b604051908082528060200260200182016040528015610eed57816020015b610eda612d62565b815260200190600190039081610ed25790505b50905060005b848110156110e9573373ffffffffffffffffffffffffffffffffffffffff16600b6000600184610f239190613b2b565b815260200190815260200160002060010160009054906101000a900473ffffffffffffffffffffffffffffffffffffffff1673ffffffffffffffffffffffffffffffffffffffff1614156110d6576000600182610f809190613b2b565b90506000600b60008381526020019081526020016000209050806040518060a0016040529081600082015481526020016001820160009054906101000a900473ffffffffffffffffffffffffffffffffffffffff1673ffffffffffffffffffffffffffffffffffffffff1673ffffffffffffffffffffffffffffffffffffffff1681526020016002820160009054906101000a900473ffffffffffffffffffffffffffffffffffffffff1673ffffffffffffffffffffffffffffffffffffffff1673ffffffffffffffffffffffffffffffffffffffff168152602001600382015481526020016004820160009054906101000a900460ff1615151515815250508486815181106110b9577f4e487b7100000000000000000000000000000000000000000000000000000000600052603260045260246000fd5b60200260200101819052506001856110d19190613b2b565b945050505b80806110e190613ce0565b915050610ef3565b508094505050505090565b60008061110083611fd3565b9050600073ffffffffffffffffffffffffffffffffffffffff168173ffffffffffffffffffffffffffffffffffffffff161415611172576040517f08c379a00000000000000000000000000000000000000000000000000000000081526004016111699061394d565b60405180910390fd5b80915050919050565b60008073ffffffffffffffffffffffffffffffffffffffff168273ffffffffffffffffffffffffffffffffffffffff1614156111ec576040517f08c379a00000000000000000000000000000000000000000000000000000000081526004016111e3906138ad565b60405180910390fd5b600360008373ffffffffffffffffffffffffffffffffffffffff1673ffffffffffffffffffffffffffffffffffffffff168152602001908152602001600020549050919050565b600061123f6007612010565b600061124b6007611c36565b90506112573382612026565b6112618185612244565b61126b81846122ef565b8091505092915050565b60606001805461128490613c7d565b80601f01602080910402602001604051908101604052809291908181526020018280546112b090613c7d565b80156112fd5780601f106112d2576101008083540402835291602001916112fd565b820191906000526020600020905b8154815290600101906020018083116112e057829003601f168201915b5050505050905090565b611319611312611b75565b83836124f2565b5050565b3373ffffffffffffffffffffffffffffffffffffffff16600a60009054906101000a900473ffffffffffffffffffffffffffffffffffffffff1673ffffffffffffffffffffffffffffffffffffffff16146113ad576040517f08c379a00000000000000000000000000000000000000000000000000000000081526004016113a4906139cd565b60405180910390fd5b8060098190555050565b6113c86113c2611b75565b83611c44565b611407576040517f08c379a00000000000000000000000000000000000000000000000000000000081526004016113fe906137cd565b60405180910390fd5b6114138484848461265f565b50505050565b6000600b60008381526020019081526020016000206003015490506000600b600084815260200190815260200160002060010160009054906101000a900473ffffffffffffffffffffffffffffffffffffffff1690508134146114b1576040517f08c379a00000000000000000000000000000000000000000000000000000000081526004016114a8906138ed565b60405180910390fd5b33600b600085815260200190815260200160002060020160006101000a81548173ffffffffffffffffffffffffffffffffffffffff021916908373ffffffffffffffffffffffffffffffffffffffff1602179055506001600b600085815260200190815260200160002060040160006101000a81548160ff0219169083151502179055506000600b600085815260200190815260200160002060010160006101000a81548173ffffffffffffffffffffffffffffffffffffffff021916908373ffffffffffffffffffffffffffffffffffffffff1602179055506115956008612010565b6115a0303385611cd9565b600a60009054906101000a900473ffffffffffffffffffffffffffffffffffffffff1673ffffffffffffffffffffffffffffffffffffffff166108fc6009549081150290604051600060405180830381858888f1935050505015801561160a573d6000803e3d6000fd5b508073ffffffffffffffffffffffffffffffffffffffff166108fc349081150290604051600060405180830381858888f19350505050158015611651573d6000803e3d6000fd5b5080600b600085815260200190815260200160002060010160006101000a81548173ffffffffffffffffffffffffffffffffffffffff021916908373ffffffffffffffffffffffffffffffffffffffff160217905550505050565b60606116b782611b2a565b60006006600084815260200190815260200160002080546116d790613c7d565b80601f016020809104026020016040519081016040528092919081815260200182805461170390613c7d565b80156117505780601f1061172557610100808354040283529160200191611750565b820191906000526020600020905b81548152906001019060200180831161173357829003601f168201915b5050505050905060006117616126bb565b90506000815114156117775781925050506117ba565b6000825111156117ac57808260405160200161179492919061369e565b604051602081830303815290604052925050506117ba565b6117b5846126d2565b925050505b919050565b3373ffffffffffffffffffffffffffffffffffffffff16600b600084815260200190815260200160002060020160009054906101000a900473ffffffffffffffffffffffffffffffffffffffff1673ffffffffffffffffffffffffffffffffffffffff1614611863576040517f08c379a000000000000000000000000000000000000000000000000000000000815260040161185a9061392d565b60405180910390fd5b60095434146118a7576040517f08c379a000000000000000000000000000000000000000000000000000000000815260040161189e9061398d565b60405180910390fd5b6000600b600084815260200190815260200160002060040160006101000a81548160ff02191690831515021790555080600b60008481526020019081526020016000206003018190555033600b600084815260200190815260200160002060010160006101000a81548173ffffffffffffffffffffffffffffffffffffffff021916908373ffffffffffffffffffffffffffffffffffffffff16021790555030600b600084815260200190815260200160002060020160006101000a81548173ffffffffffffffffffffffffffffffffffffffff021916908373ffffffffffffffffffffffffffffffffffffffff1602179055506119a5600861273a565b6119b0333084611cd9565b5050565b6000600560008473ffffffffffffffffffffffffffffffffffffffff1673ffffffffffffffffffffffffffffffffffffffff16815260200190815260200160002060008373ffffffffffffffffffffffffffffffffffffffff1673ffffffffffffffffffffffffffffffffffffffff16815260200190815260200160002060009054906101000a900460ff16905092915050565b60007f80ac58cd000000000000000000000000000000000000000000000000000000007bffffffffffffffffffffffffffffffffffffffffffffffffffffffff1916827bffffffffffffffffffffffffffffffffffffffffffffffffffffffff19161480611b1357507f5b5e139f000000000000000000000000000000000000000000000000000000007bffffffffffffffffffffffffffffffffffffffffffffffffffffffff1916827bffffffffffffffffffffffffffffffffffffffffffffffffffffffff1916145b80611b235750611b2282612796565b5b9050919050565b611b3381612800565b611b72576040517f08c379a0000000000000000000000000000000000000000000000000000000008152600401611b699061394d565b60405180910390fd5b50565b600033905090565b816004600083815260200190815260200160002060006101000a81548173ffffffffffffffffffffffffffffffffffffffff021916908373ffffffffffffffffffffffffffffffffffffffff160217905550808273ffffffffffffffffffffffffffffffffffffffff16611bf0836110f4565b73ffffffffffffffffffffffffffffffffffffffff167f8c5be1e5ebec7d5bd14f71427d1e84f3dd0314c0f7b2291e5b200ac8c7c3b92560405160405180910390a45050565b600081600001549050919050565b600080611c50836110f4565b90508073ffffffffffffffffffffffffffffffffffffffff168473ffffffffffffffffffffffffffffffffffffffff161480611c925750611c9181856119b4565b5b80611cd057508373ffffffffffffffffffffffffffffffffffffffff16611cb8846105e3565b73ffffffffffffffffffffffffffffffffffffffff16145b91505092915050565b8273ffffffffffffffffffffffffffffffffffffffff16611cf9826110f4565b73ffffffffffffffffffffffffffffffffffffffff1614611d4f576040517f08c379a0000000000000000000000000000000000000000000000000000000008152600401611d469061382d565b60405180910390fd5b600073ffffffffffffffffffffffffffffffffffffffff168273ffffffffffffffffffffffffffffffffffffffff161415611dbf576040517f08c379a0000000000000000000000000000000000000000000000000000000008152600401611db69061386d565b60405180910390fd5b611dcc8383836001612841565b8273ffffffffffffffffffffffffffffffffffffffff16611dec826110f4565b73ffffffffffffffffffffffffffffffffffffffff1614611e42576040517f08c379a0000000000000000000000000000000000000000000000000000000008152600401611e399061382d565b60405180910390fd5b6004600082815260200190815260200160002060006101000a81549073ffffffffffffffffffffffffffffffffffffffff02191690556001600360008573ffffffffffffffffffffffffffffffffffffffff1673ffffffffffffffffffffffffffffffffffffffff168152602001908152602001600020600082825403925050819055506001600360008473ffffffffffffffffffffffffffffffffffffffff1673ffffffffffffffffffffffffffffffffffffffff16815260200190815260200160002060008282540192505081905550816002600083815260200190815260200160002060006101000a81548173ffffffffffffffffffffffffffffffffffffffff021916908373ffffffffffffffffffffffffffffffffffffffff160217905550808273ffffffffffffffffffffffffffffffffffffffff168473ffffffffffffffffffffffffffffffffffffffff167fddf252ad1be2c89b69c2b068fc378daa952ba7f163c4a11628f55a4df523b3ef60405160405180910390a4611fce8383836001612847565b505050565b60006002600083815260200190815260200160002060009054906101000a900473ffffffffffffffffffffffffffffffffffffffff169050919050565b6001816000016000828254019250508190555050565b600073ffffffffffffffffffffffffffffffffffffffff168273ffffffffffffffffffffffffffffffffffffffff161415612096576040517f08c379a000000000000000000000000000000000000000000000000000000000815260040161208d9061390d565b60405180910390fd5b61209f81612800565b156120df576040517f08c379a00000000000000000000000000000000000000000000000000000000081526004016120d69061384d565b60405180910390fd5b6120ed600083836001612841565b6120f681612800565b15612136576040517f08c379a000000000000000000000000000000000000000000000000000000000815260040161212d9061384d565b60405180910390fd5b6001600360008473ffffffffffffffffffffffffffffffffffffffff1673ffffffffffffffffffffffffffffffffffffffff16815260200190815260200160002060008282540192505081905550816002600083815260200190815260200160002060006101000a81548173ffffffffffffffffffffffffffffffffffffffff021916908373ffffffffffffffffffffffffffffffffffffffff160217905550808273ffffffffffffffffffffffffffffffffffffffff16600073ffffffffffffffffffffffffffffffffffffffff167fddf252ad1be2c89b69c2b068fc378daa952ba7f163c4a11628f55a4df523b3ef60405160405180910390a4612240600083836001612847565b5050565b61224d82612800565b61228c576040517f08c379a0000000000000000000000000000000000000000000000000000000008152600401612283906138cd565b60405180910390fd5b806006600084815260200190815260200160002090805190602001906122b3929190612dbf565b507ff8e1a15aba9398e019f0b49df1a4fde98ee17ae345cb5f6b5e2c27f5033e8ce7826040516122e39190613a0d565b60405180910390a15050565b60008111612332576040517f08c379a0000000000000000000000000000000000000000000000000000000008152600401612329906139ed565b60405180910390fd5b6009543414612376576040517f08c379a000000000000000000000000000000000000000000000000000000000815260040161236d9061398d565b60405180910390fd5b6040518060a001604052808381526020013373ffffffffffffffffffffffffffffffffffffffff1681526020013073ffffffffffffffffffffffffffffffffffffffff16815260200182815260200160001515815250600b60008481526020019081526020016000206000820151816000015560208201518160010160006101000a81548173ffffffffffffffffffffffffffffffffffffffff021916908373ffffffffffffffffffffffffffffffffffffffff16021790555060408201518160020160006101000a81548173ffffffffffffffffffffffffffffffffffffffff021916908373ffffffffffffffffffffffffffffffffffffffff1602179055506060820151816003015560808201518160040160006101000a81548160ff0219169083151502179055509050506124af333084611cd9565b817fb640004f1d14576d0c209e240cad0410e0d8c0c33a09375861fbadae2588a98d33308460006040516124e694939291906136dd565b60405180910390a25050565b8173ffffffffffffffffffffffffffffffffffffffff168373ffffffffffffffffffffffffffffffffffffffff161415612561576040517f08c379a00000000000000000000000000000000000000000000000000000000081526004016125589061388d565b60405180910390fd5b80600560008573ffffffffffffffffffffffffffffffffffffffff1673ffffffffffffffffffffffffffffffffffffffff16815260200190815260200160002060008473ffffffffffffffffffffffffffffffffffffffff1673ffffffffffffffffffffffffffffffffffffffff16815260200190815260200160002060006101000a81548160ff0219169083151502179055508173ffffffffffffffffffffffffffffffffffffffff168373ffffffffffffffffffffffffffffffffffffffff167f17307eab39ab6107e8899845ad3d59bd9653f200f220920489ca2b5937696c31836040516126529190613790565b60405180910390a3505050565b61266a848484611cd9565b6126768484848461284d565b6126b5576040517f08c379a00000000000000000000000000000000000000000000000000000000081526004016126ac9061380d565b60405180910390fd5b50505050565b606060405180602001604052806000815250905090565b60606126dd82611b2a565b60006126e76126bb565b905060008151116127075760405180602001604052806000815250612732565b80612711846129e4565b60405160200161272292919061369e565b6040516020818303038152906040525b915050919050565b60008160000154905060008111612786576040517f08c379a000000000000000000000000000000000000000000000000000000000815260040161277d906137ed565b60405180910390fd5b6001810382600001819055505050565b60007f01ffc9a7000000000000000000000000000000000000000000000000000000007bffffffffffffffffffffffffffffffffffffffffffffffffffffffff1916827bffffffffffffffffffffffffffffffffffffffffffffffffffffffff1916149050919050565b60008073ffffffffffffffffffffffffffffffffffffffff1661282283611fd3565b73ffffffffffffffffffffffffffffffffffffffff1614159050919050565b50505050565b50505050565b600061286e8473ffffffffffffffffffffffffffffffffffffffff16612b08565b156129d7578373ffffffffffffffffffffffffffffffffffffffff1663150b7a02612897611b75565b8786866040518563ffffffff1660e01b81526004016128b99493929190613722565b602060405180830381600087803b1580156128d357600080fd5b505af192505050801561290457506040513d601f19601f82011682018060405250810190612901919061316b565b60015b612987573d8060008114612934576040519150601f19603f3d011682016040523d82523d6000602084013e612939565b606091505b5060008151141561297f576040517f08c379a00000000000000000000000000000000000000000000000000000000081526004016129769061380d565b60405180910390fd5b805181602001fd5b63150b7a0260e01b7bffffffffffffffffffffffffffffffffffffffffffffffffffffffff1916817bffffffffffffffffffffffffffffffffffffffffffffffffffffffff1916149150506129dc565b600190505b949350505050565b6060600060016129f384612b2b565b01905060008167ffffffffffffffff811115612a38577f4e487b7100000000000000000000000000000000000000000000000000000000600052604160045260246000fd5b6040519080825280601f01601f191660200182016040528015612a6a5781602001600182028036833780820191505090505b509050600082602001820190505b600115612afd578080600190039150507f3031323334353637383961626364656600000000000000000000000000000000600a86061a8153600a8581612ae7577f4e487b7100000000000000000000000000000000000000000000000000000000600052601260045260246000fd5b0494506000851415612af857612afd565b612a78565b819350505050919050565b6000808273ffffffffffffffffffffffffffffffffffffffff163b119050919050565b600080600090507a184f03e93ff9f4daa797ed6e38ed64bf6a1f0100000000000000008310612baf577a184f03e93ff9f4daa797ed6e38ed64bf6a1f0100000000000000008381612ba5577f4e487b7100000000000000000000000000000000000000000000000000000000600052601260045260246000fd5b0492506040810190505b6d04ee2d6d415b85acef81000000008310612c12576d04ee2d6d415b85acef81000000008381612c08577f4e487b7100000000000000000000000000000000000000000000000000000000600052601260045260246000fd5b0492506020810190505b662386f26fc100008310612c6757662386f26fc100008381612c5d577f4e487b7100000000000000000000000000000000000000000000000000000000600052601260045260246000fd5b0492506010810190505b6305f5e1008310612cb6576305f5e1008381612cac577f4e487b7100000000000000000000000000000000000000000000000000000000600052601260045260246000fd5b0492506008810190505b6127108310612d01576127108381612cf7577f4e487b7100000000000000000000000000000000000000000000000000000000600052601260045260246000fd5b0492506004810190505b60648310612d4a5760648381612d40577f4e487b7100000000000000000000000000000000000000000000000000000000600052601260045260246000fd5b0492506002810190505b600a8310612d59576001810190505b80915050919050565b6040518060a0016040528060008152602001600073ffffffffffffffffffffffffffffffffffffffff168152602001600073ffffffffffffffffffffffffffffffffffffffff168152602001600081526020016000151581525090565b828054612dcb90613c7d565b90600052602060002090601f016020900481019282612ded5760008555612e34565b82601f10612e0657805160ff1916838001178555612e34565b82800160010185558215612e34579182015b82811115612e33578251825591602001919060010190612e18565b5b509050612e419190612e45565b5090565b5b80821115612e5e576000816000905550600101612e46565b5090565b6000612e75612e7084613a4d565b613a28565b905082815260208101848484011115612e8d57600080fd5b612e98848285613c3b565b509392505050565b6000612eb3612eae84613a7e565b613a28565b905082815260208101848484011115612ecb57600080fd5b612ed6848285613c3b565b509392505050565b600081359050612eed81614271565b92915050565b600081359050612f0281614288565b92915050565b600081359050612f178161429f565b92915050565b600081519050612f2c8161429f565b92915050565b600082601f830112612f4357600080fd5b8135612f53848260208601612e62565b91505092915050565b600082601f830112612f6d57600080fd5b8135612f7d848260208601612ea0565b91505092915050565b600081359050612f95816142b6565b92915050565b600060208284031215612fad57600080fd5b6000612fbb84828501612ede565b91505092915050565b60008060408385031215612fd757600080fd5b6000612fe585828601612ede565b9250506020612ff685828601612ede565b9150509250929050565b60008060006060848603121561301557600080fd5b600061302386828701612ede565b935050602061303486828701612ede565b925050604061304586828701612f86565b9150509250925092565b6000806000806080858703121561306557600080fd5b600061307387828801612ede565b945050602061308487828801612ede565b935050604061309587828801612f86565b925050606085013567ffffffffffffffff8111156130b257600080fd5b6130be87828801612f32565b91505092959194509250565b600080604083850312156130dd57600080fd5b60006130eb85828601612ede565b92505060206130fc85828601612ef3565b9150509250929050565b6000806040838503121561311957600080fd5b600061312785828601612ede565b925050602061313885828601612f86565b9150509250929050565b60006020828403121561315457600080fd5b600061316284828501612f08565b91505092915050565b60006020828403121561317d57600080fd5b600061318b84828501612f1d565b91505092915050565b600080604083850312156131a757600080fd5b600083013567ffffffffffffffff8111156131c157600080fd5b6131cd85828601612f5c565b92505060206131de85828601612f86565b9150509250929050565b6000602082840312156131fa57600080fd5b600061320884828501612f86565b91505092915050565b6000806040838503121561322457600080fd5b600061323285828601612f86565b925050602061324385828601612f86565b9150509250929050565b60006132598383613618565b60a08301905092915050565b61326e81613bc7565b82525050565b61327d81613bb5565b82525050565b600061328e82613abf565b6132988185613aed565b93506132a383613aaf565b8060005b838110156132d45781516132bb888261324d565b97506132c683613ae0565b9250506001810190506132a7565b5085935050505092915050565b6132ea81613bd9565b82525050565b6132f981613bd9565b82525050565b600061330a82613aca565b6133148185613afe565b9350613324818560208601613c4a565b61332d81613db6565b840191505092915050565b600061334382613ad5565b61334d8185613b0f565b935061335d818560208601613c4a565b61336681613db6565b840191505092915050565b600061337c82613ad5565b6133868185613b20565b9350613396818560208601613c4a565b80840191505092915050565b60006133af602d83613b0f565b91506133ba82613dc7565b604082019050919050565b60006133d2601b83613b0f565b91506133dd82613e16565b602082019050919050565b60006133f5603283613b0f565b915061340082613e3f565b604082019050919050565b6000613418602583613b0f565b915061342382613e8e565b604082019050919050565b600061343b601c83613b0f565b915061344682613edd565b602082019050919050565b600061345e602483613b0f565b915061346982613f06565b604082019050919050565b6000613481601983613b0f565b915061348c82613f55565b602082019050919050565b60006134a4602983613b0f565b91506134af82613f7e565b604082019050919050565b60006134c7602e83613b0f565b91506134d282613fcd565b604082019050919050565b60006134ea604083613b0f565b91506134f58261401c565b604082019050919050565b600061350d602083613b0f565b91506135188261406b565b602082019050919050565b6000613530602a83613b0f565b915061353b82614094565b604082019050919050565b6000613553601883613b0f565b915061355e826140e3565b602082019050919050565b6000613576602183613b0f565b91506135818261410c565b604082019050919050565b6000613599602483613b0f565b91506135a48261415b565b604082019050919050565b60006135bc603d83613b0f565b91506135c7826141aa565b604082019050919050565b60006135df603083613b0f565b91506135ea826141f9565b604082019050919050565b6000613602601c83613b0f565b915061360d82614248565b602082019050919050565b60a08201600082015161362e6000850182613680565b5060208201516136416020850182613265565b5060408201516136546040850182613265565b5060608201516136676060850182613680565b50608082015161367a60808501826132e1565b50505050565b61368981613c31565b82525050565b61369881613c31565b82525050565b60006136aa8285613371565b91506136b68284613371565b91508190509392505050565b60006020820190506136d76000830184613274565b92915050565b60006080820190506136f26000830187613274565b6136ff6020830186613274565b61370c604083018561368f565b61371960608301846132f0565b95945050505050565b60006080820190506137376000830187613274565b6137446020830186613274565b613751604083018561368f565b818103606083015261376381846132ff565b905095945050505050565b600060208201905081810360008301526137888184613283565b905092915050565b60006020820190506137a560008301846132f0565b92915050565b600060208201905081810360008301526137c58184613338565b905092915050565b600060208201905081810360008301526137e6816133a2565b9050919050565b60006020820190508181036000830152613806816133c5565b9050919050565b60006020820190508181036000830152613826816133e8565b9050919050565b600060208201905081810360008301526138468161340b565b9050919050565b600060208201905081810360008301526138668161342e565b9050919050565b6000602082019050818103600083015261388681613451565b9050919050565b600060208201905081810360008301526138a681613474565b9050919050565b600060208201905081810360008301526138c681613497565b9050919050565b600060208201905081810360008301526138e6816134ba565b9050919050565b60006020820190508181036000830152613906816134dd565b9050919050565b6000602082019050818103600083015261392681613500565b9050919050565b6000602082019050818103600083015261394681613523565b9050919050565b6000602082019050818103600083015261396681613546565b9050919050565b6000602082019050818103600083015261398681613569565b9050919050565b600060208201905081810360008301526139a68161358c565b9050919050565b600060208201905081810360008301526139c6816135af565b9050919050565b600060208201905081810360008301526139e6816135d2565b9050919050565b60006020820190508181036000830152613a06816135f5565b9050919050565b6000602082019050613a22600083018461368f565b92915050565b6000613a32613a43565b9050613a3e8282613caf565b919050565b6000604051905090565b600067ffffffffffffffff821115613a6857613a67613d87565b5b613a7182613db6565b9050602081019050919050565b600067ffffffffffffffff821115613a9957613a98613d87565b5b613aa282613db6565b9050602081019050919050565b6000819050602082019050919050565b600081519050919050565b600081519050919050565b600081519050919050565b6000602082019050919050565b600082825260208201905092915050565b600082825260208201905092915050565b600082825260208201905092915050565b600081905092915050565b6000613b3682613c31565b9150613b4183613c31565b9250827fffffffffffffffffffffffffffffffffffffffffffffffffffffffffffffffff03821115613b7657613b75613d29565b5b828201905092915050565b6000613b8c82613c31565b9150613b9783613c31565b925082821015613baa57613ba9613d29565b5b828203905092915050565b6000613bc082613c11565b9050919050565b6000613bd282613c11565b9050919050565b60008115159050919050565b60007fffffffff0000000000000000000000000000000000000000000000000000000082169050919050565b600073ffffffffffffffffffffffffffffffffffffffff82169050919050565b6000819050919050565b82818337600083830152505050565b60005b83811015613c68578082015181840152602081019050613c4d565b83811115613c77576000848401525b50505050565b60006002820490506001821680613c9557607f821691505b60208210811415613ca957613ca8613d58565b5b50919050565b613cb882613db6565b810181811067ffffffffffffffff82111715613cd757613cd6613d87565b5b80604052505050565b6000613ceb82613c31565b91507fffffffffffffffffffffffffffffffffffffffffffffffffffffffffffffffff821415613d1e57613d1d613d29565b5b600182019050919050565b7f4e487b7100000000000000000000000000000000000000000000000000000000600052601160045260246000fd5b7f4e487b7100000000000000000000000000000000000000000000000000000000600052602260045260246000fd5b7f4e487b7100000000000000000000000000000000000000000000000000000000600052604160045260246000fd5b6000601f19601f8301169050919050565b7f4552433732313a2063616c6c6572206973206e6f7420746f6b656e206f776e6560008201527f72206f7220617070726f76656400000000000000000000000000000000000000602082015250565b7f436f756e7465723a2064656372656d656e74206f766572666c6f770000000000600082015250565b7f4552433732313a207472616e7366657220746f206e6f6e20455243373231526560008201527f63656976657220696d706c656d656e7465720000000000000000000000000000602082015250565b7f4552433732313a207472616e736665722066726f6d20696e636f72726563742060008201527f6f776e6572000000000000000000000000000000000000000000000000000000602082015250565b7f4552433732313a20746f6b656e20616c7265616479206d696e74656400000000600082015250565b7f4552433732313a207472616e7366657220746f20746865207a65726f2061646460008201527f7265737300000000000000000000000000000000000000000000000000000000602082015250565b7f4552433732313a20617070726f766520746f2063616c6c657200000000000000600082015250565b7f4552433732313a2061646472657373207a65726f206973206e6f74206120766160008201527f6c6964206f776e65720000000000000000000000000000000000000000000000602082015250565b7f45524337323155524953746f726167653a2055524920736574206f66206e6f6e60008201527f6578697374656e7420746f6b656e000000000000000000000000000000000000602082015250565b7f506c65617365207375626d6974207468652061736b696e67207072696365206960008201527f6e206f7264657220746f20636f6d706c65746520746865207075726368617365602082015250565b7f4552433732313a206d696e7420746f20746865207a65726f2061646472657373600082015250565b7f4f6e6c79206974656d206f776e65722063616e20706572666f726d207468697360008201527f206f7065726174696f6e00000000000000000000000000000000000000000000602082015250565b7f4552433732313a20696e76616c696420746f6b656e2049440000000000000000600082015250565b7f4552433732313a20617070726f76616c20746f2063757272656e74206f776e6560008201527f7200000000000000000000000000000000000000000000000000000000000000602082015250565b7f5072696365206d75737420626520657175616c20746f206c697374696e67207060008201527f7269636500000000000000000000000000000000000000000000000000000000602082015250565b7f4552433732313a20617070726f76652063616c6c6572206973206e6f7420746f60008201527f6b656e206f776e6572206f7220617070726f76656420666f7220616c6c000000602082015250565b7f4f6e6c79206d61726b6574706c616365206f776e65722063616e20757064617460008201527f65206c697374696e672070726963652e00000000000000000000000000000000602082015250565b7f5072696365206d757374206265206174206c6561737420312077656900000000600082015250565b61427a81613bb5565b811461428557600080fd5b50565b61429181613bd9565b811461429c57600080fd5b50565b6142a881613be5565b81146142b357600080fd5b50565b6142bf81613c31565b81146142ca57600080fd5b5056fea2646970667358221220ffa146edf6d944628e0f4cb02898f027b0b14fe7d2ee5b5e100f4bac3c9691d064736f6c63430008040033",
  "linkReferences": {},
  "deployedLinkReferences": {}
}