{
  "_format": "hh-sol-artifact-1",
  "contractName": "NFTMarketplace",
  "sourceName": "contracts/NFTMarketplace.sol",
  "abi": [
    {
      "inputs": [],
      "stateMutability": "nonpayable",
      "type": "constructor"
    },
    {
      "anonymous": false,
      "inputs": [
        {
          "indexed": true,
          "internalType": "address",
          "name": "owner",
          "type": "address"
        },
        {
          "indexed": true,
          "internalType": "address",
          "name": "approved",
          "type": "address"
        },
        {
          "indexed": true,
          "internalType": "uint256",
          "name": "tokenId",
          "type": "uint256"
        }
      ],
      "name": "Approval",
      "type": "event"
    },
    {
      "anonymous": false,
      "inputs": [
        {
          "indexed": true,
          "internalType": "address",
          "name": "owner",
          "type": "address"
        },
        {
          "indexed": true,
          "internalType": "address",
          "name": "operator",
          "type": "address"
        },
        {
          "indexed": false,
          "internalType": "bool",
          "name": "approved",
          "type": "bool"
        }
      ],
      "name": "ApprovalForAll",
      "type": "event"
    },
    {
      "anonymous": false,
      "inputs": [
        {
          "indexed": false,
          "internalType": "uint256",
          "name": "_fromTokenId",
          "type": "uint256"
        },
        {
          "indexed": false,
          "internalType": "uint256",
          "name": "_toTokenId",
          "type": "uint256"
        }
      ],
      "name": "BatchMetadataUpdate",
      "type": "event"
    },
    {
      "anonymous": false,
      "inputs": [
        {
          "indexed": true,
          "internalType": "uint256",
          "name": "tokenId",
          "type": "uint256"
        },
        {
          "indexed": false,
          "internalType": "address",
          "name": "seller",
          "type": "address"
        },
        {
          "indexed": false,
          "internalType": "address",
          "name": "owner",
          "type": "address"
        },
        {
          "indexed": false,
          "internalType": "uint256",
          "name": "price",
          "type": "uint256"
        },
        {
          "indexed": false,
          "internalType": "bool",
          "name": "sold",
          "type": "bool"
        }
      ],
      "name": "MarketItemCreated",
      "type": "event"
    },
    {
      "anonymous": false,
      "inputs": [
        {
          "indexed": false,
          "internalType": "uint256",
          "name": "_tokenId",
          "type": "uint256"
        }
      ],
      "name": "MetadataUpdate",
      "type": "event"
    },
    {
      "anonymous": false,
      "inputs": [
        {
          "indexed": true,
          "internalType": "address",
          "name": "from",
          "type": "address"
        },
        {
          "indexed": true,
          "internalType": "address",
          "name": "to",
          "type": "address"
        },
        {
          "indexed": true,
          "internalType": "uint256",
          "name": "tokenId",
          "type": "uint256"
        }
      ],
      "name": "Transfer",
      "type": "event"
    },
    {
      "inputs": [
        {
          "internalType": "address",
          "name": "to",
          "type": "address"
        },
        {
          "internalType": "uint256",
          "name": "tokenId",
          "type": "uint256"
        }
      ],
      "name": "approve",
      "outputs": [],
      "stateMutability": "nonpayable",
      "type": "function"
    },
    {
      "inputs": [
        {
          "internalType": "address",
          "name": "owner",
          "type": "address"
        }
      ],
      "name": "balanceOf",
      "outputs": [
        {
          "internalType": "uint256",
          "name": "",
          "type": "uint256"
        }
      ],
      "stateMutability": "view",
      "type": "function"
    },
    {
      "inputs": [
        {
          "internalType": "uint256",
          "name": "tokenId",
          "type": "uint256"
        }
      ],
      "name": "createMarketSale",
      "outputs": [],
      "stateMutability": "payable",
      "type": "function"
    },
    {
      "inputs": [
        {
          "internalType": "string",
          "name": "tokenURI",
          "type": "string"
        },
        {
          "internalType": "uint256",
          "name": "price",
          "type": "uint256"
        }
      ],
      "name": "createToken",
      "outputs": [
        {
          "internalType": "uint256",
          "name": "",
          "type": "uint256"
        }
      ],
      "stateMutability": "payable",
      "type": "function"
    },
    {
      "inputs": [
        {
          "internalType": "uint256",
          "name": "tokenId",
          "type": "uint256"
        }
      ],
      "name": "fetchMarketItemById",
      "outputs": [
        {
          "components": [
            {
              "internalType": "uint256",
              "name": "tokenId",
              "type": "uint256"
            },
            {
              "internalType": "address payable",
              "name": "seller",
              "type": "address"
            },
            {
              "internalType": "address payable",
              "name": "owner",
              "type": "address"
            },
            {
              "internalType": "uint256",
              "name": "price",
              "type": "uint256"
            },
            {
              "internalType": "bool",
              "name": "sold",
              "type": "bool"
            }
          ],
          "internalType": "struct NFTMarketplace.MarketItem",
          "name": "",
          "type": "tuple"
        }
      ],
      "stateMutability": "view",
      "type": "function"
    },
    {
      "inputs": [],
      "name": "fetchMarketItems",
      "outputs": [
        {
          "components": [
            {
              "internalType": "uint256",
              "name": "tokenId",
              "type": "uint256"
            },
            {
              "internalType": "address payable",
              "name": "seller",
              "type": "address"
            },
            {
              "internalType": "address payable",
              "name": "owner",
              "type": "address"
            },
            {
              "internalType": "uint256",
              "name": "price",
              "type": "uint256"
            },
            {
              "internalType": "bool",
              "name": "sold",
              "type": "bool"
            }
          ],
          "internalType": "struct NFTMarketplace.MarketItem[]",
          "name": "",
          "type": "tuple[]"
        }
      ],
      "stateMutability": "view",
      "type": "function"
    },
    {
      "inputs": [],
      "name": "fetchMyNFTs",
      "outputs": [
        {
          "components": [
            {
              "internalType": "uint256",
              "name": "tokenId",
              "type": "uint256"
            },
            {
              "internalType": "address payable",
              "name": "seller",
              "type": "address"
            },
            {
              "internalType": "address payable",
              "name": "owner",
              "type": "address"
            },
            {
              "internalType": "uint256",
              "name": "price",
              "type": "uint256"
            },
            {
              "internalType": "bool",
              "name": "sold",
              "type": "bool"
            }
          ],
          "internalType": "struct NFTMarketplace.MarketItem[]",
          "name": "",
          "type": "tuple[]"
        }
      ],
      "stateMutability": "view",
      "type": "function"
    },
    {
      "inputs": [],
      "name": "fetchTransactionBySeller",
      "outputs": [
        {
          "components": [
            {
              "internalType": "uint256",
              "name": "transactionId",
              "type": "uint256"
            },
            {
              "internalType": "uint256",
              "name": "tokenId",
              "type": "uint256"
            },
            {
              "internalType": "address",
              "name": "seller",
              "type": "address"
            },
            {
              "internalType": "address",
              "name": "buyer",
              "type": "address"
            },
            {
              "internalType": "uint256",
              "name": "price",
              "type": "uint256"
            },
            {
              "internalType": "string",
              "name": "status",
              "type": "string"
            },
            {
              "internalType": "uint256",
              "name": "listedDate",
              "type": "uint256"
            },
            {
              "internalType": "uint256",
              "name": "soldDate",
              "type": "uint256"
            }
          ],
          "internalType": "struct NFTMarketplace.Transaction[]",
          "name": "",
          "type": "tuple[]"
        }
      ],
      "stateMutability": "view",
      "type": "function"
    },
    {
      "inputs": [
        {
          "internalType": "uint256",
          "name": "tokenId",
          "type": "uint256"
        }
      ],
      "name": "getApproved",
      "outputs": [
        {
          "internalType": "address",
          "name": "",
          "type": "address"
        }
      ],
      "stateMutability": "view",
      "type": "function"
    },
    {
      "inputs": [],
      "name": "getListingPrice",
      "outputs": [
        {
          "internalType": "uint256",
          "name": "",
          "type": "uint256"
        }
      ],
      "stateMutability": "view",
      "type": "function"
    },
    {
      "inputs": [
        {
          "internalType": "address",
          "name": "owner",
          "type": "address"
        },
        {
          "internalType": "address",
          "name": "operator",
          "type": "address"
        }
      ],
      "name": "isApprovedForAll",
      "outputs": [
        {
          "internalType": "bool",
          "name": "",
          "type": "bool"
        }
      ],
      "stateMutability": "view",
      "type": "function"
    },
    {
      "inputs": [],
      "name": "name",
      "outputs": [
        {
          "internalType": "string",
          "name": "",
          "type": "string"
        }
      ],
      "stateMutability": "view",
      "type": "function"
    },
    {
      "inputs": [
        {
          "internalType": "uint256",
          "name": "tokenId",
          "type": "uint256"
        }
      ],
      "name": "ownerOf",
      "outputs": [
        {
          "internalType": "address",
          "name": "",
          "type": "address"
        }
      ],
      "stateMutability": "view",
      "type": "function"
    },
    {
      "inputs": [
        {
          "internalType": "uint256",
          "name": "tokenId",
          "type": "uint256"
        },
        {
          "internalType": "uint256",
          "name": "price",
          "type": "uint256"
        }
      ],
      "name": "resellToken",
      "outputs": [],
      "stateMutability": "payable",
      "type": "function"
    },
    {
      "inputs": [
        {
          "internalType": "address",
          "name": "from",
          "type": "address"
        },
        {
          "internalType": "address",
          "name": "to",
          "type": "address"
        },
        {
          "internalType": "uint256",
          "name": "tokenId",
          "type": "uint256"
        }
      ],
      "name": "safeTransferFrom",
      "outputs": [],
      "stateMutability": "nonpayable",
      "type": "function"
    },
    {
      "inputs": [
        {
          "internalType": "address",
          "name": "from",
          "type": "address"
        },
        {
          "internalType": "address",
          "name": "to",
          "type": "address"
        },
        {
          "internalType": "uint256",
          "name": "tokenId",
          "type": "uint256"
        },
        {
          "internalType": "bytes",
          "name": "data",
          "type": "bytes"
        }
      ],
      "name": "safeTransferFrom",
      "outputs": [],
      "stateMutability": "nonpayable",
      "type": "function"
    },
    {
      "inputs": [
        {
          "internalType": "address",
          "name": "operator",
          "type": "address"
        },
        {
          "internalType": "bool",
          "name": "approved",
          "type": "bool"
        }
      ],
      "name": "setApprovalForAll",
      "outputs": [],
      "stateMutability": "nonpayable",
      "type": "function"
    },
    {
      "inputs": [
        {
          "internalType": "bytes4",
          "name": "interfaceId",
          "type": "bytes4"
        }
      ],
      "name": "supportsInterface",
      "outputs": [
        {
          "internalType": "bool",
          "name": "",
          "type": "bool"
        }
      ],
      "stateMutability": "view",
      "type": "function"
    },
    {
      "inputs": [],
      "name": "symbol",
      "outputs": [
        {
          "internalType": "string",
          "name": "",
          "type": "string"
        }
      ],
      "stateMutability": "view",
      "type": "function"
    },
    {
      "inputs": [
        {
          "internalType": "uint256",
          "name": "tokenId",
          "type": "uint256"
        }
      ],
      "name": "tokenURI",
      "outputs": [
        {
          "internalType": "string",
          "name": "",
          "type": "string"
        }
      ],
      "stateMutability": "view",
      "type": "function"
    },
    {
      "inputs": [
        {
          "internalType": "address",
          "name": "from",
          "type": "address"
        },
        {
          "internalType": "address",
          "name": "to",
          "type": "address"
        },
        {
          "internalType": "uint256",
          "name": "tokenId",
          "type": "uint256"
        }
      ],
      "name": "transferFrom",
      "outputs": [],
      "stateMutability": "nonpayable",
      "type": "function"
    },
    {
      "inputs": [
        {
          "internalType": "uint256",
          "name": "tokenId",
          "type": "uint256"
        }
      ],
      "name": "unList",
      "outputs": [],
      "stateMutability": "nonpayable",
      "type": "function"
    },
    {
      "inputs": [
        {
          "internalType": "uint256",
          "name": "_listingPrice",
          "type": "uint256"
        }
      ],
      "name": "updateListingPrice",
      "outputs": [],
      "stateMutability": "payable",
      "type": "function"
    }
  ],
  "bytecode": "0x60806040526658d15e17628000600a553480156200001c57600080fd5b506040518060400160405280601081526020017f4d657461766572736520546f6b656e73000000000000000000000000000000008152506040518060400160405280600481526020017f4d455454000000000000000000000000000000000000000000000000000000008152508160009080519060200190620000a192919062000104565b508060019080519060200190620000ba92919062000104565b50505033600b60006101000a81548173ffffffffffffffffffffffffffffffffffffffff021916908373ffffffffffffffffffffffffffffffffffffffff16021790555062000219565b8280546200011290620001b4565b90600052602060002090601f01602090048101928262000136576000855562000182565b82601f106200015157805160ff191683800117855562000182565b8280016001018555821562000182579182015b828111156200018157825182559160200191906001019062000164565b5b50905062000191919062000195565b5090565b5b80821115620001b057600081600090555060010162000196565b5090565b60006002820490506001821680620001cd57607f821691505b60208210811415620001e457620001e3620001ea565b5b50919050565b7f4e487b7100000000000000000000000000000000000000000000000000000000600052602260045260246000fd5b61515280620002296000396000f3fe6080604052600436106101405760003560e01c80636352211e116100b6578063ae677aa31161006f578063ae677aa314610475578063b88d4fde14610491578063be9af536146104ba578063c87b56dd146104d6578063e219fc7514610513578063e985e9c51461052f57610140565b80636352211e1461033a57806370a082311461037757806372b3b620146103b457806395d89b41146103e4578063a22cb4651461040f578063ad1477a91461043857610140565b80630ff41c58116101085780630ff41c581461023e57806312e8558514610267578063202e37401461029257806323b872dd146102bd57806342842e0e146102e657806362e9955c1461030f57610140565b806301ffc9a71461014557806306fdde0314610182578063081812fc146101ad578063095ea7b3146101ea5780630f08efe014610213575b600080fd5b34801561015157600080fd5b5061016c60048036038101906101679190613afb565b61056c565b60405161017991906143e0565b60405180910390f35b34801561018e57600080fd5b506101976105cd565b6040516101a491906143fb565b60405180910390f35b3480156101b957600080fd5b506101d460048036038101906101cf9190613ba1565b61065f565b6040516101e191906142f0565b60405180910390f35b3480156101f657600080fd5b50610211600480360381019061020c9190613abf565b6106a5565b005b34801561021f57600080fd5b506102286107bd565b604051610235919061439c565b60405180910390f35b34801561024a57600080fd5b5061026560048036038101906102609190613ba1565b610a72565b005b34801561027357600080fd5b5061027c610c9a565b60405161028991906146f8565b60405180910390f35b34801561029e57600080fd5b506102a7610ca4565b6040516102b4919061439c565b60405180910390f35b3480156102c957600080fd5b506102e460048036038101906102df91906139b9565b610fde565b005b3480156102f257600080fd5b5061030d600480360381019061030891906139b9565b61103e565b005b34801561031b57600080fd5b5061032461105e565b60405161033191906143be565b60405180910390f35b34801561034657600080fd5b50610361600480360381019061035c9190613ba1565b61142e565b60405161036e91906142f0565b60405180910390f35b34801561038357600080fd5b5061039e60048036038101906103999190613954565b6114b5565b6040516103ab91906146f8565b60405180910390f35b6103ce60048036038101906103c99190613b4d565b61156d565b6040516103db91906146f8565b60405180910390f35b3480156103f057600080fd5b506103f96115af565b60405161040691906143fb565b60405180910390f35b34801561041b57600080fd5b5061043660048036038101906104319190613a83565b611641565b005b34801561044457600080fd5b5061045f600480360381019061045a9190613ba1565b611657565b60405161046c91906146dd565b60405180910390f35b61048f600480360381019061048a9190613ba1565b6117b9565b005b34801561049d57600080fd5b506104b860048036038101906104b39190613a08565b611853565b005b6104d460048036038101906104cf9190613ba1565b6118b5565b005b3480156104e257600080fd5b506104fd60048036038101906104f89190613ba1565b611c08565b60405161050a91906143fb565b60405180910390f35b61052d60048036038101906105289190613bca565b611d1b565b005b34801561053b57600080fd5b506105566004803603810190610551919061397d565b6120b9565b60405161056391906143e0565b60405180910390f35b6000634906490660e01b7bffffffffffffffffffffffffffffffffffffffffffffffffffffffff1916827bffffffffffffffffffffffffffffffffffffffffffffffffffffffff191614806105c657506105c58261214d565b5b9050919050565b6060600080546105dc906149dc565b80601f0160208091040260200160405190810160405280929190818152602001828054610608906149dc565b80156106555780601f1061062a57610100808354040283529160200191610655565b820191906000526020600020905b81548152906001019060200180831161063857829003601f168201915b5050505050905090565b600061066a8261222f565b6004600083815260200190815260200160002060009054906101000a900473ffffffffffffffffffffffffffffffffffffffff169050919050565b60006106b08261142e565b90508073ffffffffffffffffffffffffffffffffffffffff168373ffffffffffffffffffffffffffffffffffffffff161415610721576040517f08c379a0000000000000000000000000000000000000000000000000000000008152600401610718906145dd565b60405180910390fd5b8073ffffffffffffffffffffffffffffffffffffffff1661074061227a565b73ffffffffffffffffffffffffffffffffffffffff16148061076f575061076e8161076961227a565b6120b9565b5b6107ae576040517f08c379a00000000000000000000000000000000000000000000000000000000081526004016107a59061463d565b60405180910390fd5b6107b88383612282565b505050565b606060006107cb600761233b565b905060006107d9600861233b565b6107e3600761233b565b6107ed91906148b6565b90506000808267ffffffffffffffff811115610832577f4e487b7100000000000000000000000000000000000000000000000000000000600052604160045260246000fd5b60405190808252806020026020018201604052801561086b57816020015b6108586136aa565b8152602001906001900390816108505790505b50905060005b84811015610a67573073ffffffffffffffffffffffffffffffffffffffff16600c60006001846108a19190614860565b815260200190815260200160002060020160009054906101000a900473ffffffffffffffffffffffffffffffffffffffff1673ffffffffffffffffffffffffffffffffffffffff161415610a545760006001826108fe9190614860565b90506000600c60008381526020019081526020016000209050806040518060a0016040529081600082015481526020016001820160009054906101000a900473ffffffffffffffffffffffffffffffffffffffff1673ffffffffffffffffffffffffffffffffffffffff1673ffffffffffffffffffffffffffffffffffffffff1681526020016002820160009054906101000a900473ffffffffffffffffffffffffffffffffffffffff1673ffffffffffffffffffffffffffffffffffffffff1673ffffffffffffffffffffffffffffffffffffffff168152602001600382015481526020016004820160009054906101000a900460ff161515151581525050848681518110610a37577f4e487b7100000000000000000000000000000000000000000000000000000000600052603260045260246000fd5b6020026020010181905250600185610a4f9190614860565b945050505b8080610a5f90614a3f565b915050610871565b508094505050505090565b6000600c600083815260200190815260200160002090503373ffffffffffffffffffffffffffffffffffffffff168160010160009054906101000a900473ffffffffffffffffffffffffffffffffffffffff1673ffffffffffffffffffffffffffffffffffffffff1614610b1b576040517f08c379a0000000000000000000000000000000000000000000000000000000008152600401610b129061467d565b60405180910390fd5b3073ffffffffffffffffffffffffffffffffffffffff168160020160009054906101000a900473ffffffffffffffffffffffffffffffffffffffff1673ffffffffffffffffffffffffffffffffffffffff1614610bad576040517f08c379a0000000000000000000000000000000000000000000000000000000008152600401610ba4906146bd565b60405180910390fd5b610bb8303384612349565b338160020160006101000a81548173ffffffffffffffffffffffffffffffffffffffff021916908373ffffffffffffffffffffffffffffffffffffffff16021790555060018160040160006101000a81548160ff021916908315150217905550610c226008612643565b6000610c2d83612659565b90506000600d600083815260200190815260200160002090506040518060400160405280600981526020017f43414e43454c4c45440000000000000000000000000000000000000000000000815250816005019080519060200190610c93929190613707565b5050505050565b6000600a54905090565b60606000610cb2600761233b565b905060008060005b83811015610d5b573373ffffffffffffffffffffffffffffffffffffffff16600c6000600184610cea9190614860565b815260200190815260200160002060020160009054906101000a900473ffffffffffffffffffffffffffffffffffffffff1673ffffffffffffffffffffffffffffffffffffffff161415610d4857600183610d459190614860565b92505b8080610d5390614a3f565b915050610cba565b5060008267ffffffffffffffff811115610d9e577f4e487b7100000000000000000000000000000000000000000000000000000000600052604160045260246000fd5b604051908082528060200260200182016040528015610dd757816020015b610dc46136aa565b815260200190600190039081610dbc5790505b50905060005b84811015610fd3573373ffffffffffffffffffffffffffffffffffffffff16600c6000600184610e0d9190614860565b815260200190815260200160002060020160009054906101000a900473ffffffffffffffffffffffffffffffffffffffff1673ffffffffffffffffffffffffffffffffffffffff161415610fc0576000600182610e6a9190614860565b90506000600c60008381526020019081526020016000209050806040518060a0016040529081600082015481526020016001820160009054906101000a900473ffffffffffffffffffffffffffffffffffffffff1673ffffffffffffffffffffffffffffffffffffffff1673ffffffffffffffffffffffffffffffffffffffff1681526020016002820160009054906101000a900473ffffffffffffffffffffffffffffffffffffffff1673ffffffffffffffffffffffffffffffffffffffff1673ffffffffffffffffffffffffffffffffffffffff168152602001600382015481526020016004820160009054906101000a900460ff161515151581525050848681518110610fa3577f4e487b7100000000000000000000000000000000000000000000000000000000600052603260045260246000fd5b6020026020010181905250600185610fbb9190614860565b945050505b8080610fcb90614a3f565b915050610ddd565b508094505050505090565b610fef610fe961227a565b826126f3565b61102e576040517f08c379a00000000000000000000000000000000000000000000000000000000081526004016110259061441d565b60405180910390fd5b611039838383612349565b505050565b61105983838360405180602001604052806000815250611853565b505050565b6060600061106c600961233b565b905060008060005b83811015611115573373ffffffffffffffffffffffffffffffffffffffff16600d60006001846110a49190614860565b815260200190815260200160002060020160009054906101000a900473ffffffffffffffffffffffffffffffffffffffff1673ffffffffffffffffffffffffffffffffffffffff161415611102576001836110ff9190614860565b92505b808061110d90614a3f565b915050611074565b5060008267ffffffffffffffff811115611158577f4e487b7100000000000000000000000000000000000000000000000000000000600052604160045260246000fd5b60405190808252806020026020018201604052801561119157816020015b61117e61378d565b8152602001906001900390816111765790505b50905060005b84811015611423573373ffffffffffffffffffffffffffffffffffffffff16600d60006001846111c79190614860565b815260200190815260200160002060020160009054906101000a900473ffffffffffffffffffffffffffffffffffffffff1673ffffffffffffffffffffffffffffffffffffffff1614156114105760006001826112249190614860565b90506000600d60008381526020019081526020016000209050806040518061010001604052908160008201548152602001600182015481526020016002820160009054906101000a900473ffffffffffffffffffffffffffffffffffffffff1673ffffffffffffffffffffffffffffffffffffffff1673ffffffffffffffffffffffffffffffffffffffff1681526020016003820160009054906101000a900473ffffffffffffffffffffffffffffffffffffffff1673ffffffffffffffffffffffffffffffffffffffff1673ffffffffffffffffffffffffffffffffffffffff16815260200160048201548152602001600582018054611324906149dc565b80601f0160208091040260200160405190810160405280929190818152602001828054611350906149dc565b801561139d5780601f106113725761010080835404028352916020019161139d565b820191906000526020600020905b81548152906001019060200180831161138057829003601f168201915b50505050508152602001600682015481526020016007820154815250508486815181106113f3577f4e487b7100000000000000000000000000000000000000000000000000000000600052603260045260246000fd5b602002602001018190525060018561140b9190614860565b945050505b808061141b90614a3f565b915050611197565b508094505050505090565b60008061143a83612788565b9050600073ffffffffffffffffffffffffffffffffffffffff168173ffffffffffffffffffffffffffffffffffffffff1614156114ac576040517f08c379a00000000000000000000000000000000000000000000000000000000081526004016114a3906145bd565b60405180910390fd5b80915050919050565b60008073ffffffffffffffffffffffffffffffffffffffff168273ffffffffffffffffffffffffffffffffffffffff161415611526576040517f08c379a000000000000000000000000000000000000000000000000000000000815260040161151d9061451d565b60405180910390fd5b600360008373ffffffffffffffffffffffffffffffffffffffff1673ffffffffffffffffffffffffffffffffffffffff168152602001908152602001600020549050919050565b60006115796007612643565b6000611585600761233b565b905061159133826127c5565b61159b81856129e3565b6115a58184612a8e565b8091505092915050565b6060600180546115be906149dc565b80601f01602080910402602001604051908101604052809291908181526020018280546115ea906149dc565b80156116375780601f1061160c57610100808354040283529160200191611637565b820191906000526020600020905b81548152906001019060200180831161161a57829003601f168201915b5050505050905090565b61165361164c61227a565b8383612e3a565b5050565b61165f6136aa565b6000600c60008481526020019081526020016000206000015414156116b9576040517f08c379a00000000000000000000000000000000000000000000000000000000081526004016116b0906145fd565b60405180910390fd5b600c60008381526020019081526020016000206040518060a0016040529081600082015481526020016001820160009054906101000a900473ffffffffffffffffffffffffffffffffffffffff1673ffffffffffffffffffffffffffffffffffffffff1673ffffffffffffffffffffffffffffffffffffffff1681526020016002820160009054906101000a900473ffffffffffffffffffffffffffffffffffffffff1673ffffffffffffffffffffffffffffffffffffffff1673ffffffffffffffffffffffffffffffffffffffff168152602001600382015481526020016004820160009054906101000a900460ff1615151515815250509050919050565b3373ffffffffffffffffffffffffffffffffffffffff16600b60009054906101000a900473ffffffffffffffffffffffffffffffffffffffff1673ffffffffffffffffffffffffffffffffffffffff1614611849576040517f08c379a00000000000000000000000000000000000000000000000000000000081526004016118409061465d565b60405180910390fd5b80600a8190555050565b61186461185e61227a565b836126f3565b6118a3576040517f08c379a000000000000000000000000000000000000000000000000000000000815260040161189a9061441d565b60405180910390fd5b6118af84848484612fa7565b50505050565b6000600c60008381526020019081526020016000206003015490506000600c600084815260200190815260200160002060010160009054906101000a900473ffffffffffffffffffffffffffffffffffffffff16905081341461194d576040517f08c379a00000000000000000000000000000000000000000000000000000000081526004016119449061455d565b60405180910390fd5b600061195884612659565b90506000600d60008381526020019081526020016000209050338160030160006101000a81548173ffffffffffffffffffffffffffffffffffffffff021916908373ffffffffffffffffffffffffffffffffffffffff1602179055506040518060400160405280600481526020017f534f4c4400000000000000000000000000000000000000000000000000000000815250816005019080519060200190611a01929190613707565b5042816007018190555033600c600087815260200190815260200160002060020160006101000a81548173ffffffffffffffffffffffffffffffffffffffff021916908373ffffffffffffffffffffffffffffffffffffffff1602179055506001600c600087815260200190815260200160002060040160006101000a81548160ff0219169083151502179055506000600c600087815260200190815260200160002060010160006101000a81548173ffffffffffffffffffffffffffffffffffffffff021916908373ffffffffffffffffffffffffffffffffffffffff160217905550611aef6008612643565b611afa303387612349565b600b60009054906101000a900473ffffffffffffffffffffffffffffffffffffffff1673ffffffffffffffffffffffffffffffffffffffff166108fc600a549081150290604051600060405180830381858888f19350505050158015611b64573d6000803e3d6000fd5b508273ffffffffffffffffffffffffffffffffffffffff166108fc349081150290604051600060405180830381858888f19350505050158015611bab573d6000803e3d6000fd5b5082600c600087815260200190815260200160002060010160006101000a81548173ffffffffffffffffffffffffffffffffffffffff021916908373ffffffffffffffffffffffffffffffffffffffff1602179055505050505050565b6060611c138261222f565b6000600660008481526020019081526020016000208054611c33906149dc565b80601f0160208091040260200160405190810160405280929190818152602001828054611c5f906149dc565b8015611cac5780601f10611c8157610100808354040283529160200191611cac565b820191906000526020600020905b815481529060010190602001808311611c8f57829003601f168201915b505050505090506000611cbd613003565b9050600081511415611cd3578192505050611d16565b600082511115611d08578082604051602001611cf09291906142cc565b60405160208183030381529060405292505050611d16565b611d118461301a565b925050505b919050565b3373ffffffffffffffffffffffffffffffffffffffff16600c600084815260200190815260200160002060020160009054906101000a900473ffffffffffffffffffffffffffffffffffffffff1673ffffffffffffffffffffffffffffffffffffffff1614611dbf576040517f08c379a0000000000000000000000000000000000000000000000000000000008152600401611db69061459d565b60405180910390fd5b600a543414611e03576040517f08c379a0000000000000000000000000000000000000000000000000000000008152600401611dfa9061461d565b60405180910390fd5b6000600c600084815260200190815260200160002060040160006101000a81548160ff02191690831515021790555080600c60008481526020019081526020016000206003018190555033600c600084815260200190815260200160002060010160006101000a81548173ffffffffffffffffffffffffffffffffffffffff021916908373ffffffffffffffffffffffffffffffffffffffff16021790555030600c600084815260200190815260200160002060020160006101000a81548173ffffffffffffffffffffffffffffffffffffffff021916908373ffffffffffffffffffffffffffffffffffffffff160217905550611f016008613082565b611f0c333084612349565b611f166009612643565b6000611f22600961233b565b90506040518061010001604052808281526020018481526020013373ffffffffffffffffffffffffffffffffffffffff168152602001600073ffffffffffffffffffffffffffffffffffffffff1681526020018381526020016040518060400160405280600781526020017f4c495354494e470000000000000000000000000000000000000000000000000081525081526020014281526020016000815250600d6000838152602001908152602001600020600082015181600001556020820151816001015560408201518160020160006101000a81548173ffffffffffffffffffffffffffffffffffffffff021916908373ffffffffffffffffffffffffffffffffffffffff16021790555060608201518160030160006101000a81548173ffffffffffffffffffffffffffffffffffffffff021916908373ffffffffffffffffffffffffffffffffffffffff1602179055506080820151816004015560a082015181600501908051906020019061209c929190613707565b5060c0820151816006015560e08201518160070155905050505050565b6000600560008473ffffffffffffffffffffffffffffffffffffffff1673ffffffffffffffffffffffffffffffffffffffff16815260200190815260200160002060008373ffffffffffffffffffffffffffffffffffffffff1673ffffffffffffffffffffffffffffffffffffffff16815260200190815260200160002060009054906101000a900460ff16905092915050565b60007f80ac58cd000000000000000000000000000000000000000000000000000000007bffffffffffffffffffffffffffffffffffffffffffffffffffffffff1916827bffffffffffffffffffffffffffffffffffffffffffffffffffffffff1916148061221857507f5b5e139f000000000000000000000000000000000000000000000000000000007bffffffffffffffffffffffffffffffffffffffffffffffffffffffff1916827bffffffffffffffffffffffffffffffffffffffffffffffffffffffff1916145b806122285750612227826130de565b5b9050919050565b61223881613148565b612277576040517f08c379a000000000000000000000000000000000000000000000000000000000815260040161226e906145bd565b60405180910390fd5b50565b600033905090565b816004600083815260200190815260200160002060006101000a81548173ffffffffffffffffffffffffffffffffffffffff021916908373ffffffffffffffffffffffffffffffffffffffff160217905550808273ffffffffffffffffffffffffffffffffffffffff166122f58361142e565b73ffffffffffffffffffffffffffffffffffffffff167f8c5be1e5ebec7d5bd14f71427d1e84f3dd0314c0f7b2291e5b200ac8c7c3b92560405160405180910390a45050565b600081600001549050919050565b8273ffffffffffffffffffffffffffffffffffffffff166123698261142e565b73ffffffffffffffffffffffffffffffffffffffff16146123bf576040517f08c379a00000000000000000000000000000000000000000000000000000000081526004016123b69061447d565b60405180910390fd5b600073ffffffffffffffffffffffffffffffffffffffff168273ffffffffffffffffffffffffffffffffffffffff16141561242f576040517f08c379a0000000000000000000000000000000000000000000000000000000008152600401612426906144dd565b60405180910390fd5b61243c8383836001613189565b8273ffffffffffffffffffffffffffffffffffffffff1661245c8261142e565b73ffffffffffffffffffffffffffffffffffffffff16146124b2576040517f08c379a00000000000000000000000000000000000000000000000000000000081526004016124a99061447d565b60405180910390fd5b6004600082815260200190815260200160002060006101000a81549073ffffffffffffffffffffffffffffffffffffffff02191690556001600360008573ffffffffffffffffffffffffffffffffffffffff1673ffffffffffffffffffffffffffffffffffffffff168152602001908152602001600020600082825403925050819055506001600360008473ffffffffffffffffffffffffffffffffffffffff1673ffffffffffffffffffffffffffffffffffffffff16815260200190815260200160002060008282540192505081905550816002600083815260200190815260200160002060006101000a81548173ffffffffffffffffffffffffffffffffffffffff021916908373ffffffffffffffffffffffffffffffffffffffff160217905550808273ffffffffffffffffffffffffffffffffffffffff168473ffffffffffffffffffffffffffffffffffffffff167fddf252ad1be2c89b69c2b068fc378daa952ba7f163c4a11628f55a4df523b3ef60405160405180910390a461263e838383600161318f565b505050565b6001816000016000828254019250508190555050565b600080612666600961233b565b905060008190505b60008111156126b25783600d600083815260200190815260200160002060010154141561269f5780925050506126ee565b80806126aa906149b2565b91505061266e565b506040517f08c379a00000000000000000000000000000000000000000000000000000000081526004016126e5906144bd565b60405180910390fd5b919050565b6000806126ff8361142e565b90508073ffffffffffffffffffffffffffffffffffffffff168473ffffffffffffffffffffffffffffffffffffffff161480612741575061274081856120b9565b5b8061277f57508373ffffffffffffffffffffffffffffffffffffffff166127678461065f565b73ffffffffffffffffffffffffffffffffffffffff16145b91505092915050565b60006002600083815260200190815260200160002060009054906101000a900473ffffffffffffffffffffffffffffffffffffffff169050919050565b600073ffffffffffffffffffffffffffffffffffffffff168273ffffffffffffffffffffffffffffffffffffffff161415612835576040517f08c379a000000000000000000000000000000000000000000000000000000000815260040161282c9061457d565b60405180910390fd5b61283e81613148565b1561287e576040517f08c379a00000000000000000000000000000000000000000000000000000000081526004016128759061449d565b60405180910390fd5b61288c600083836001613189565b61289581613148565b156128d5576040517f08c379a00000000000000000000000000000000000000000000000000000000081526004016128cc9061449d565b60405180910390fd5b6001600360008473ffffffffffffffffffffffffffffffffffffffff1673ffffffffffffffffffffffffffffffffffffffff16815260200190815260200160002060008282540192505081905550816002600083815260200190815260200160002060006101000a81548173ffffffffffffffffffffffffffffffffffffffff021916908373ffffffffffffffffffffffffffffffffffffffff160217905550808273ffffffffffffffffffffffffffffffffffffffff16600073ffffffffffffffffffffffffffffffffffffffff167fddf252ad1be2c89b69c2b068fc378daa952ba7f163c4a11628f55a4df523b3ef60405160405180910390a46129df60008383600161318f565b5050565b6129ec82613148565b612a2b576040517f08c379a0000000000000000000000000000000000000000000000000000000008152600401612a229061453d565b60405180910390fd5b80600660008481526020019081526020016000209080519060200190612a52929190613707565b507ff8e1a15aba9398e019f0b49df1a4fde98ee17ae345cb5f6b5e2c27f5033e8ce782604051612a8291906146f8565b60405180910390a15050565b60008111612ad1576040517f08c379a0000000000000000000000000000000000000000000000000000000008152600401612ac89061469d565b60405180910390fd5b600a543414612b15576040517f08c379a0000000000000000000000000000000000000000000000000000000008152600401612b0c9061461d565b60405180910390fd5b6040518060a001604052808381526020013373ffffffffffffffffffffffffffffffffffffffff1681526020013073ffffffffffffffffffffffffffffffffffffffff16815260200182815260200160001515815250600c60008481526020019081526020016000206000820151816000015560208201518160010160006101000a81548173ffffffffffffffffffffffffffffffffffffffff021916908373ffffffffffffffffffffffffffffffffffffffff16021790555060408201518160020160006101000a81548173ffffffffffffffffffffffffffffffffffffffff021916908373ffffffffffffffffffffffffffffffffffffffff1602179055506060820151816003015560808201518160040160006101000a81548160ff021916908315150217905550905050612c4e333084612349565b817fb640004f1d14576d0c209e240cad0410e0d8c0c33a09375861fbadae2588a98d3330846000604051612c85949392919061430b565b60405180910390a2612c976009612643565b6000612ca3600961233b565b90506040518061010001604052808281526020018481526020013373ffffffffffffffffffffffffffffffffffffffff168152602001600073ffffffffffffffffffffffffffffffffffffffff1681526020018381526020016040518060400160405280600781526020017f4c495354494e470000000000000000000000000000000000000000000000000081525081526020014281526020016000815250600d6000838152602001908152602001600020600082015181600001556020820151816001015560408201518160020160006101000a81548173ffffffffffffffffffffffffffffffffffffffff021916908373ffffffffffffffffffffffffffffffffffffffff16021790555060608201518160030160006101000a81548173ffffffffffffffffffffffffffffffffffffffff021916908373ffffffffffffffffffffffffffffffffffffffff1602179055506080820151816004015560a0820151816005019080519060200190612e1d929190613707565b5060c0820151816006015560e08201518160070155905050505050565b8173ffffffffffffffffffffffffffffffffffffffff168373ffffffffffffffffffffffffffffffffffffffff161415612ea9576040517f08c379a0000000000000000000000000000000000000000000000000000000008152600401612ea0906144fd565b60405180910390fd5b80600560008573ffffffffffffffffffffffffffffffffffffffff1673ffffffffffffffffffffffffffffffffffffffff16815260200190815260200160002060008473ffffffffffffffffffffffffffffffffffffffff1673ffffffffffffffffffffffffffffffffffffffff16815260200190815260200160002060006101000a81548160ff0219169083151502179055508173ffffffffffffffffffffffffffffffffffffffff168373ffffffffffffffffffffffffffffffffffffffff167f17307eab39ab6107e8899845ad3d59bd9653f200f220920489ca2b5937696c3183604051612f9a91906143e0565b60405180910390a3505050565b612fb2848484612349565b612fbe84848484613195565b612ffd576040517f08c379a0000000000000000000000000000000000000000000000000000000008152600401612ff49061445d565b60405180910390fd5b50505050565b606060405180602001604052806000815250905090565b60606130258261222f565b600061302f613003565b9050600081511161304f576040518060200160405280600081525061307a565b806130598461332c565b60405160200161306a9291906142cc565b6040516020818303038152906040525b915050919050565b600081600001549050600081116130ce576040517f08c379a00000000000000000000000000000000000000000000000000000000081526004016130c59061443d565b60405180910390fd5b6001810382600001819055505050565b60007f01ffc9a7000000000000000000000000000000000000000000000000000000007bffffffffffffffffffffffffffffffffffffffffffffffffffffffff1916827bffffffffffffffffffffffffffffffffffffffffffffffffffffffff1916149050919050565b60008073ffffffffffffffffffffffffffffffffffffffff1661316a83612788565b73ffffffffffffffffffffffffffffffffffffffff1614159050919050565b50505050565b50505050565b60006131b68473ffffffffffffffffffffffffffffffffffffffff16613450565b1561331f578373ffffffffffffffffffffffffffffffffffffffff1663150b7a026131df61227a565b8786866040518563ffffffff1660e01b81526004016132019493929190614350565b602060405180830381600087803b15801561321b57600080fd5b505af192505050801561324c57506040513d601f19601f820116820180604052508101906132499190613b24565b60015b6132cf573d806000811461327c576040519150601f19603f3d011682016040523d82523d6000602084013e613281565b606091505b506000815114156132c7576040517f08c379a00000000000000000000000000000000000000000000000000000000081526004016132be9061445d565b60405180910390fd5b805181602001fd5b63150b7a0260e01b7bffffffffffffffffffffffffffffffffffffffffffffffffffffffff1916817bffffffffffffffffffffffffffffffffffffffffffffffffffffffff191614915050613324565b600190505b949350505050565b60606000600161333b84613473565b01905060008167ffffffffffffffff811115613380577f4e487b7100000000000000000000000000000000000000000000000000000000600052604160045260246000fd5b6040519080825280601f01601f1916602001820160405280156133b25781602001600182028036833780820191505090505b509050600082602001820190505b600115613445578080600190039150507f3031323334353637383961626364656600000000000000000000000000000000600a86061a8153600a858161342f577f4e487b7100000000000000000000000000000000000000000000000000000000600052601260045260246000fd5b049450600085141561344057613445565b6133c0565b819350505050919050565b6000808273ffffffffffffffffffffffffffffffffffffffff163b119050919050565b600080600090507a184f03e93ff9f4daa797ed6e38ed64bf6a1f01000000000000000083106134f7577a184f03e93ff9f4daa797ed6e38ed64bf6a1f01000000000000000083816134ed577f4e487b7100000000000000000000000000000000000000000000000000000000600052601260045260246000fd5b0492506040810190505b6d04ee2d6d415b85acef8100000000831061355a576d04ee2d6d415b85acef81000000008381613550577f4e487b7100000000000000000000000000000000000000000000000000000000600052601260045260246000fd5b0492506020810190505b662386f26fc1000083106135af57662386f26fc1000083816135a5577f4e487b7100000000000000000000000000000000000000000000000000000000600052601260045260246000fd5b0492506010810190505b6305f5e10083106135fe576305f5e10083816135f4577f4e487b7100000000000000000000000000000000000000000000000000000000600052601260045260246000fd5b0492506008810190505b612710831061364957612710838161363f577f4e487b7100000000000000000000000000000000000000000000000000000000600052601260045260246000fd5b0492506004810190505b606483106136925760648381613688577f4e487b7100000000000000000000000000000000000000000000000000000000600052601260045260246000fd5b0492506002810190505b600a83106136a1576001810190505b80915050919050565b6040518060a0016040528060008152602001600073ffffffffffffffffffffffffffffffffffffffff168152602001600073ffffffffffffffffffffffffffffffffffffffff168152602001600081526020016000151581525090565b828054613713906149dc565b90600052602060002090601f016020900481019282613735576000855561377c565b82601f1061374e57805160ff191683800117855561377c565b8280016001018555821561377c579182015b8281111561377b578251825591602001919060010190613760565b5b50905061378991906137fe565b5090565b6040518061010001604052806000815260200160008152602001600073ffffffffffffffffffffffffffffffffffffffff168152602001600073ffffffffffffffffffffffffffffffffffffffff168152602001600081526020016060815260200160008152602001600081525090565b5b808211156138175760008160009055506001016137ff565b5090565b600061382e61382984614738565b614713565b90508281526020810184848401111561384657600080fd5b613851848285614970565b509392505050565b600061386c61386784614769565b614713565b90508281526020810184848401111561388457600080fd5b61388f848285614970565b509392505050565b6000813590506138a6816150c0565b92915050565b6000813590506138bb816150d7565b92915050565b6000813590506138d0816150ee565b92915050565b6000815190506138e5816150ee565b92915050565b600082601f8301126138fc57600080fd5b813561390c84826020860161381b565b91505092915050565b600082601f83011261392657600080fd5b8135613936848260208601613859565b91505092915050565b60008135905061394e81615105565b92915050565b60006020828403121561396657600080fd5b600061397484828501613897565b91505092915050565b6000806040838503121561399057600080fd5b600061399e85828601613897565b92505060206139af85828601613897565b9150509250929050565b6000806000606084860312156139ce57600080fd5b60006139dc86828701613897565b93505060206139ed86828701613897565b92505060406139fe8682870161393f565b9150509250925092565b60008060008060808587031215613a1e57600080fd5b6000613a2c87828801613897565b9450506020613a3d87828801613897565b9350506040613a4e8782880161393f565b925050606085013567ffffffffffffffff811115613a6b57600080fd5b613a77878288016138eb565b91505092959194509250565b60008060408385031215613a9657600080fd5b6000613aa485828601613897565b9250506020613ab5858286016138ac565b9150509250929050565b60008060408385031215613ad257600080fd5b6000613ae085828601613897565b9250506020613af18582860161393f565b9150509250929050565b600060208284031215613b0d57600080fd5b6000613b1b848285016138c1565b91505092915050565b600060208284031215613b3657600080fd5b6000613b44848285016138d6565b91505092915050565b60008060408385031215613b6057600080fd5b600083013567ffffffffffffffff811115613b7a57600080fd5b613b8685828601613915565b9250506020613b978582860161393f565b9150509250929050565b600060208284031215613bb357600080fd5b6000613bc18482850161393f565b91505092915050565b60008060408385031215613bdd57600080fd5b6000613beb8582860161393f565b9250506020613bfc8582860161393f565b9150509250929050565b6000613c12838361412e565b60a08301905092915050565b6000613c2a83836141fe565b905092915050565b613c3b816148fc565b82525050565b613c4a816148ea565b82525050565b613c59816148ea565b82525050565b6000613c6a826147ba565b613c748185614800565b9350613c7f8361479a565b8060005b83811015613cb0578151613c978882613c06565b9750613ca2836147e6565b925050600181019050613c83565b5085935050505092915050565b6000613cc8826147c5565b613cd28185614811565b935083602082028501613ce4856147aa565b8060005b85811015613d205784840389528151613d018582613c1e565b9450613d0c836147f3565b925060208a01995050600181019050613ce8565b50829750879550505050505092915050565b613d3b8161490e565b82525050565b613d4a8161490e565b82525050565b6000613d5b826147d0565b613d658185614822565b9350613d7581856020860161497f565b613d7e81614b15565b840191505092915050565b6000613d94826147db565b613d9e8185614833565b9350613dae81856020860161497f565b613db781614b15565b840191505092915050565b6000613dcd826147db565b613dd78185614844565b9350613de781856020860161497f565b613df081614b15565b840191505092915050565b6000613e06826147db565b613e108185614855565b9350613e2081856020860161497f565b80840191505092915050565b6000613e39602d83614844565b9150613e4482614b26565b604082019050919050565b6000613e5c601b83614844565b9150613e6782614b75565b602082019050919050565b6000613e7f603283614844565b9150613e8a82614b9e565b604082019050919050565b6000613ea2602583614844565b9150613ead82614bed565b604082019050919050565b6000613ec5601c83614844565b9150613ed082614c3c565b602082019050919050565b6000613ee8601583614844565b9150613ef382614c65565b602082019050919050565b6000613f0b602483614844565b9150613f1682614c8e565b604082019050919050565b6000613f2e601983614844565b9150613f3982614cdd565b602082019050919050565b6000613f51602983614844565b9150613f5c82614d06565b604082019050919050565b6000613f74602e83614844565b9150613f7f82614d55565b604082019050919050565b6000613f97604083614844565b9150613fa282614da4565b604082019050919050565b6000613fba602083614844565b9150613fc582614df3565b602082019050919050565b6000613fdd602a83614844565b9150613fe882614e1c565b604082019050919050565b6000614000601883614844565b915061400b82614e6b565b602082019050919050565b6000614023602183614844565b915061402e82614e94565b604082019050919050565b6000614046601583614844565b915061405182614ee3565b602082019050919050565b6000614069602483614844565b915061407482614f0c565b604082019050919050565b600061408c603d83614844565b915061409782614f5b565b604082019050919050565b60006140af603083614844565b91506140ba82614faa565b604082019050919050565b60006140d2602383614844565b91506140dd82614ff9565b604082019050919050565b60006140f5601c83614844565b915061410082615048565b602082019050919050565b6000614118602683614844565b915061412382615071565b604082019050919050565b60a08201600082015161414460008501826142ae565b5060208201516141576020850182613c32565b50604082015161416a6040850182613c32565b50606082015161417d60608501826142ae565b5060808201516141906080850182613d32565b50505050565b60a0820160008201516141ac60008501826142ae565b5060208201516141bf6020850182613c32565b5060408201516141d26040850182613c32565b5060608201516141e560608501826142ae565b5060808201516141f86080850182613d32565b50505050565b60006101008301600083015161421760008601826142ae565b50602083015161422a60208601826142ae565b50604083015161423d6040860182613c41565b5060608301516142506060860182613c41565b50608083015161426360808601826142ae565b5060a083015184820360a086015261427b8282613d89565b91505060c083015161429060c08601826142ae565b5060e08301516142a360e08601826142ae565b508091505092915050565b6142b781614966565b82525050565b6142c681614966565b82525050565b60006142d88285613dfb565b91506142e48284613dfb565b91508190509392505050565b60006020820190506143056000830184613c50565b92915050565b60006080820190506143206000830187613c50565b61432d6020830186613c50565b61433a60408301856142bd565b6143476060830184613d41565b95945050505050565b60006080820190506143656000830187613c50565b6143726020830186613c50565b61437f60408301856142bd565b81810360608301526143918184613d50565b905095945050505050565b600060208201905081810360008301526143b68184613c5f565b905092915050565b600060208201905081810360008301526143d88184613cbd565b905092915050565b60006020820190506143f56000830184613d41565b92915050565b600060208201905081810360008301526144158184613dc2565b905092915050565b6000602082019050818103600083015261443681613e2c565b9050919050565b6000602082019050818103600083015261445681613e4f565b9050919050565b6000602082019050818103600083015261447681613e72565b9050919050565b6000602082019050818103600083015261449681613e95565b9050919050565b600060208201905081810360008301526144b681613eb8565b9050919050565b600060208201905081810360008301526144d681613edb565b9050919050565b600060208201905081810360008301526144f681613efe565b9050919050565b6000602082019050818103600083015261451681613f21565b9050919050565b6000602082019050818103600083015261453681613f44565b9050919050565b6000602082019050818103600083015261455681613f67565b9050919050565b6000602082019050818103600083015261457681613f8a565b9050919050565b6000602082019050818103600083015261459681613fad565b9050919050565b600060208201905081810360008301526145b681613fd0565b9050919050565b600060208201905081810360008301526145d681613ff3565b9050919050565b600060208201905081810360008301526145f681614016565b9050919050565b6000602082019050818103600083015261461681614039565b9050919050565b600060208201905081810360008301526146368161405c565b9050919050565b600060208201905081810360008301526146568161407f565b9050919050565b60006020820190508181036000830152614676816140a2565b9050919050565b60006020820190508181036000830152614696816140c5565b9050919050565b600060208201905081810360008301526146b6816140e8565b9050919050565b600060208201905081810360008301526146d68161410b565b9050919050565b600060a0820190506146f26000830184614196565b92915050565b600060208201905061470d60008301846142bd565b92915050565b600061471d61472e565b90506147298282614a0e565b919050565b6000604051905090565b600067ffffffffffffffff82111561475357614752614ae6565b5b61475c82614b15565b9050602081019050919050565b600067ffffffffffffffff82111561478457614783614ae6565b5b61478d82614b15565b9050602081019050919050565b6000819050602082019050919050565b6000819050602082019050919050565b600081519050919050565b600081519050919050565b600081519050919050565b600081519050919050565b6000602082019050919050565b6000602082019050919050565b600082825260208201905092915050565b600082825260208201905092915050565b600082825260208201905092915050565b600082825260208201905092915050565b600082825260208201905092915050565b600081905092915050565b600061486b82614966565b915061487683614966565b9250827fffffffffffffffffffffffffffffffffffffffffffffffffffffffffffffffff038211156148ab576148aa614a88565b5b828201905092915050565b60006148c182614966565b91506148cc83614966565b9250828210156148df576148de614a88565b5b828203905092915050565b60006148f582614946565b9050919050565b600061490782614946565b9050919050565b60008115159050919050565b60007fffffffff0000000000000000000000000000000000000000000000000000000082169050919050565b600073ffffffffffffffffffffffffffffffffffffffff82169050919050565b6000819050919050565b82818337600083830152505050565b60005b8381101561499d578082015181840152602081019050614982565b838111156149ac576000848401525b50505050565b60006149bd82614966565b915060008214156149d1576149d0614a88565b5b600182039050919050565b600060028204905060018216806149f457607f821691505b60208210811415614a0857614a07614ab7565b5b50919050565b614a1782614b15565b810181811067ffffffffffffffff82111715614a3657614a35614ae6565b5b80604052505050565b6000614a4a82614966565b91507fffffffffffffffffffffffffffffffffffffffffffffffffffffffffffffffff821415614a7d57614a7c614a88565b5b600182019050919050565b7f4e487b7100000000000000000000000000000000000000000000000000000000600052601160045260246000fd5b7f4e487b7100000000000000000000000000000000000000000000000000000000600052602260045260246000fd5b7f4e487b7100000000000000000000000000000000000000000000000000000000600052604160045260246000fd5b6000601f19601f8301169050919050565b7f4552433732313a2063616c6c6572206973206e6f7420746f6b656e206f776e6560008201527f72206f7220617070726f76656400000000000000000000000000000000000000602082015250565b7f436f756e7465723a2064656372656d656e74206f766572666c6f770000000000600082015250565b7f4552433732313a207472616e7366657220746f206e6f6e20455243373231526560008201527f63656976657220696d706c656d656e7465720000000000000000000000000000602082015250565b7f4552433732313a207472616e736665722066726f6d20696e636f72726563742060008201527f6f776e6572000000000000000000000000000000000000000000000000000000602082015250565b7f4552433732313a20746f6b656e20616c7265616479206d696e74656400000000600082015250565b7f5472616e73616374696f6e206e6f7420666f756e640000000000000000000000600082015250565b7f4552433732313a207472616e7366657220746f20746865207a65726f2061646460008201527f7265737300000000000000000000000000000000000000000000000000000000602082015250565b7f4552433732313a20617070726f766520746f2063616c6c657200000000000000600082015250565b7f4552433732313a2061646472657373207a65726f206973206e6f74206120766160008201527f6c6964206f776e65720000000000000000000000000000000000000000000000602082015250565b7f45524337323155524953746f726167653a2055524920736574206f66206e6f6e60008201527f6578697374656e7420746f6b656e000000000000000000000000000000000000602082015250565b7f506c65617365207375626d6974207468652061736b696e67207072696365206960008201527f6e206f7264657220746f20636f6d706c65746520746865207075726368617365602082015250565b7f4552433732313a206d696e7420746f20746865207a65726f2061646472657373600082015250565b7f4f6e6c79206974656d206f776e65722063616e20706572666f726d207468697360008201527f206f7065726174696f6e00000000000000000000000000000000000000000000602082015250565b7f4552433732313a20696e76616c696420746f6b656e2049440000000000000000600082015250565b7f4552433732313a20617070726f76616c20746f2063757272656e74206f776e6560008201527f7200000000000000000000000000000000000000000000000000000000000000602082015250565b7f4d61726b6574206974656d206e6f7420666f756e640000000000000000000000600082015250565b7f5072696365206d75737420626520657175616c20746f206c697374696e67207060008201527f7269636500000000000000000000000000000000000000000000000000000000602082015250565b7f4552433732313a20617070726f76652063616c6c6572206973206e6f7420746f60008201527f6b656e206f776e6572206f7220617070726f76656420666f7220616c6c000000602082015250565b7f4f6e6c79206d61726b6574706c616365206f776e65722063616e20757064617460008201527f65206c697374696e672070726963652e00000000000000000000000000000000602082015250565b7f4f6e6c79207468652073656c6c65722063616e20756e6c69737420746865206960008201527f74656d0000000000000000000000000000000000000000000000000000000000602082015250565b7f5072696365206d757374206265206174206c6561737420312077656900000000600082015250565b7f4974656d206d757374206265206c6973746564206f6e20746865206d61726b6560008201527f74706c6163650000000000000000000000000000000000000000000000000000602082015250565b6150c9816148ea565b81146150d457600080fd5b50565b6150e08161490e565b81146150eb57600080fd5b50565b6150f78161491a565b811461510257600080fd5b50565b61510e81614966565b811461511957600080fd5b5056fea264697066735822122045b58b1c67e6f2801f4026737ec4cd7f717df77c16cbc38be4701dcdbb31106a64736f6c63430008040033",
  "linkReferences": {},
  "deployedLinkReferences": {}
}